:020000040800F2
:1000000000000220950200089D020008A1020008DD
:10001000A5020008A9020008AD02000800000000C7
:10002000000000000000000000000000B102000815
:10003000B502000800000000B9020008B917000866
:10004000C1020008C1020008C1020008C102000884
:10005000C1020008C1020008C1020008C102000874
:10006000C1020008C1020008C1020008C102000864
:10007000C1020008C1020008C1020008C102000854
:10008000C1020008C1020008C1020008C102000844
:10009000C1020008C1020008C1020008C102000834
:1000A000C1020008C1020008C1020008C102000824
:1000B000C1020008C1020008C5170008C1020008FB
:1000C000C1020008C1020008C1020008C102000804
:1000D000C1020008C1020008C1020008C1020008F4
:1000E000C1020008C1020008C1020008C1020008E4
:1000F000C1020008C1020008C1020008C1020008D4
:10010000C1020008C1020008C1020008C1020008C3
:10011000C1020008C1020008C1020008C1020008B3
:10012000C1020008C1020008C1020008C1020008A3
:10013000C1020008C1020008C1020008C102000893
:10014000C1020008C1020008C1020008C102000883
:10015000C1020008C1020008C1020008C102000873
:10016000C1020008C1020008C1020008C102000863
:10017000C1020008C1020008C1020008000000001E
:10018000C1020008C102000800B583B0304B314AFB
:100190001360314A1360314B3149002201E01A608B
:1001A00004338B42FBD32B4B1B6813B92A4B1B68C0
:1001B00003B1FEE7264B2B4A13602B4A13602B4BEF
:1001C0002B4A2C4803E0116819600433043283423F
:1001D000F9D3244B1A68284B9A4204D1224B1A684F
:1001E0001B689A4200D0FEE701F040FA01A8694678
:1001F00001F088F9214B224EF61AB61000241D4654
:1002000003E055F8243098470134A642F9DC1D4B31
:100210001D4EF61AB61000241D4603E055F8243092
:1002200098470134A642F9DC0198009901F026FABA
:100230000546164B164CE41AA4101E4603E0013C7A
:1002400056F824309847002CF9DC284601F02CF9A8
:10025000BABADECA780000205401002078000020DD
:100260005801002000000020740000200000002041
:100270001C2200087800002078563412C4020008BE
:10028000C4020008C4020008C4020008C402000836
:10029000C402000808B5FFF777FF00BFFEE700BF04
:1002A000FEE700BFFEE700BFFEE700BFFEE700BFBE
:1002B000FEE700BFFEE700BFFEE700BFFEE700BFAE
:0402C000FEE700BF96
:1002C40010B5044600F0B8FE064BA3FB00208009DD
:1002D40000F0ACF84FF0FF302146002200F058F84F
:1002E400002010BDD34D621008B50B4B1A6842F4C0
:1002F40000721A601A6842F480621A601A6842F442
:1003040080721A60032000F025F80F20FFF7D8FF51
:1003140001F046FA002008BD003C0240024B1A6876
:1003240001321A60704700BF7C000020014B18683E
:10033400704700BF7C00002010B582B00190FFF729
:10034400F5FF0446FFF7F2FF001B019B9842F9D327
:1003540002B010BD10B50446C31E042B03D90A48CD
:10036400A42101F0D5F804F00704084BD86820F460
:10037400E0600004000C40EA042040F0BF6040F458
:100384000030D86010BD00BF5020000800ED00E030
:1003940070B506460D4614460F2A03D91A48BC21E7
:1003A40001F0B6F80F2D03D91748BD2101F0B0F8BC
:1003B400164BDB68C3F30223C3F10701042928BFEA
:1003C40004211A1D062A01D9033B00E0002301225F
:1003D40002FA01F101390D409D4002FA03F3013B99
:1003E4001C402C43002E06DA06F00F062401E4B26A
:1003F400074B9C5570BD2401E4B206F1604000F542
:10040400614080F8004370BD5020000800ED00E01A
:1004140014ED00E0420900F01F00012303FA00F08C
:10042400014B43F82200704700E100E00138B0F1CD
:10043400807F0AD2064B5860F021064A82F82310C6
:100444000020986007221A6070470120704700BF9F
:1004540010E000E000ED00E0704700BF08B5FFF7D2
:10046400FBFF08BD2DE9F84F07460D460B881BB965
:10047400AB48C32101F04CF86B68012B22D9112B36
:1004840020D0022B1ED0122B1CD0A64A934219D086
:1004940002F58012934215D002F58012934211D0D6
:1004A400A2F5F81293420DD002F58012934209D0BE
:1004B40002F58012934205D0032B03D09848C4213F
:1004C40001F026F8AB68022B03D99548C52101F049
:1004D4001FF800241EE1A2460126A6402B6803EA69
:1004E4000608B04540F015816B68022B01D0122B31
:1004F4004BD12B69C3B3092B36D0ABB3A3B39BB396
:1005040093B3012B30D02FD0022B2DD02CD02BD055
:10051400032B29D0042B27D026D025D0052B23D07C
:1005240022D0092B20D0062B1ED0092B1CD0072B40
:100534001AD019D018D0082B16D015D014D0092BE6
:1005440012D011D00A2B0FD00ED00B2B0CD00C2BA9
:100554000AD009D00D2B07D00C2B05D00F2B03D0BC
:100564006F48D62100F0D4FFE308083357F823106E
:1005740004F0070292000F20904021EA000029694C
:1005840001FA02F2024347F823203A684FEA440989
:100594004FF0030B0BFA09FB6FEA0B0B0BEA020299
:1005A4006B6803F0030303FA09F313433B606B68BE
:1005B4005A1E012A03D9112B01D0122B19D1EB6831
:1005C400032B03D95648E92100F0A2FFBA680BEACD
:1005D4000202EB6803FA09F31343BB607B6823EA66
:1005E40006066B68C3F3001303FA0AFA4AEA06061E
:1005F4007E60FB680BEA030BAB6803FA09F343EA7A
:100604000B03FB606B6813F0805F00F08280464B45
:100614005A6C42F480425A64A308991C434A52F823
:10062400210004F0030292000F21914020EA01010D
:100634003F48874237D000F58060874231D000F5CB
:10064400806087422BD000F58060874225D000F57A
:10065400806087421FD000F58060874219D000F582
:100664008060874213D000F5806087420DD000F58A
:100674008060874207D000F58060874201D109205D
:1006840012E00A2010E008200EE007200CE006200B
:100694000AE0052008E0042006E0032004E002202C
:1006A40002E0012000E0002000FA02F20A430233D3
:1006B4001E4941F823201F4B1A686FEA080303EA16
:1006C4000201686810F4803F01D048EA0201194A27
:1006D4001160526803EA0201686810F4003F01D017
:1006E40048EA0201134A5160926803EA0201686809
:1006F40010F4801F01D048EA02010E4A9160D268CA
:100704001340696811F4001F01D048EA0203094A42
:10071400D36001340F2C7FF6DEAEBDE8F88F00BF46
:100724008420000800001110003802400038014005
:1007340000000240003C014070B5054614460E46D8
:1007440021B908484FF4D37100F0E2FE012C04D91A
:10075400044840F2A71100F0DBFE0CB12E8370BDFB
:100764006E8370BD8420000838B504460D4621B957
:10077400044840F2BD1100F0CBFE63695D40656141
:1007840038BD00BF84200008F8B5044603680F2B69
:1007940003D9B148FD2100F0BBFE236813F0010F1B
:1007A40061D06368012B06D9052B04D0AA484FF405
:1007B400817100F0ADFEA94B9B6803F00C03042B80
:1007C4000AD0A64B9B6803F00C03082B0ED1A34B55
:1007D4005B6813F4800F09D0A04B1B6813F4003F2F
:1007E40041D06368012B40F0FD813CE000229C4B2A
:1007F4001A70FFF79BFD0746984D41F2883605E0D5
:10080400FFF794FDC01BB04200F2EE812B6813F495
:10081400003FF5D12279924B1A706368012B11D1F4
:10082400FFF784FD07468D4D41F2883605E0FFF75A
:100834007DFDC01BB04200F2D9812B6813F4003F48
:10084400F5D010E0FFF772FD0746844D41F288367B
:1008540005E0FFF76BFDC01BB04200F2C9812B68B5
:1008640013F4003FF5D1236813F0020F6CD0E36852
:10087400012B04D978484FF4A17100F049FE236993
:100884001F2B04D9744840F2431100F041FE734B0E
:100894009B6813F00C0F0AD0704B9B6803F00C0399
:1008A400082B1CD16D4B5B6813F4800F17D16B4B75
:1008B4001B6813F0020F03D0E368012B40F09A8108
:1008C400664B196821F0F8012269F82090FAA0F02B
:1008D400B0FA80F0C0B282400A431A6034E0E368A0
:1008E40003B301225F4B1A60FFF720FD06465B4D00
:1008F40005E0FFF71BFD801B642800F27D812B6857
:1009040013F0020FF5D0554B196821F0F801226954
:10091400F82090FAA0F0B0FA80F0C0B282400A4306
:100924001A6011E000224F4B1A60FFF7FFFC0646E5
:100934004A4D05E0FFF7FAFC801B642800F25E8153
:100944002B6813F0020FF5D1236813F0080F2ED093
:100954006369012B04D940484FF4C17100F0D8FDFC
:10096400636993B10122404B1A60FFF7DFFC06462E
:100974003A4D05E0FFF7DAFC801B642800F2408161
:100984006B6F13F0020FF5D011E00022364B1A60A2
:10099400FFF7CCFC0646314D05E0FFF7C7FC801B92
:1009A400642800F22F816B6F13F0020FF5D12368D6
:1009B40013F0040F6FD0A368012B06D9052B04D0C4
:1009C40025484FF4D67100F0A3FD244B1A6C42F075
:1009D40080521A64A3F5E4331A6842F480721A60F0
:1009E400FFF7A4FC0646214D05E0FFF79FFC801BA2
:1009F400642800F209812B6813F4807FF5D000226B
:100A04001B4B1A70FFF792FC0746144D41F28836CF
:100A140005E0FFF78BFCC01BB04200F2F7802B6FA0
:100A240013F0020FF5D1227A114B1A70A368012B2F
:100A340020D1FFF77BFC0746084D41F2883605E0DC
:100A4400FFF774FCC01BB04200F2E2802B6F13F07E
:100A5400020FF5D01FE000BFC42000080038024098
:100A64000238024000004742800E474200700040B6
:100A740070380240FFF75AFC07466C4D41F2883645
:100A840005E0FFF753FCC01BB04200F2C3802B6F9C
:100A940013F0020FF5D1A369022B04D964484FF473
:100AA400F87100F035FDA369002B00F0B5805F4AB2
:100AB400926802F00C02082A00F0B080022B7ED16A
:100AC400E3693BB1B3F5800F04D0594840F2F91102
:100AD40000F01EFD236A3F2B04D955484FF4FD71E5
:100AE40000F016FD636AC03BF02B04D9504840F275
:100AF400FB1100F00DFDA36A022B0AD0042B08D0D1
:100B0400062B06D0082B04D049484FF4FE7100F0A0
:100B1400FFFCE36A043B0B2B04D9454840F2FD116A
:100B240000F0F6FC0022434B1A60FFF7FFFB064679
:100B34003E4D04E0FFF7FAFB801B642870D82B6855
:100B440013F0007FF6D1236A626A47F6C07191FA06
:100B5400A1F1B1FA81F1C9B28A4043EA0201A36A60
:100B64005B085A1E4FF4403393FAA3F3B3FA83F3AA
:100B7400DBB29A400A43E3691343E16A4FF07062BF
:100B840092FAA2F2B2FA82F2D2B201FA02F21A4351
:100B940042F00052254B5A600122264B1A60FFF79F
:100BA400C5FB0546214C04E0FFF7C0FB401B64284D
:100BB40038D8236813F0007FF6D00020F8BD002257
:100BC4001C4B1A60FFF7B2FB0546184C04E0FFF714
:100BD400ADFB401B642827D8236813F0007FF6D1AF
:100BE4000020F8BD0120F8BD0320F8BD0320F8BDA6
:100BF4000320F8BD0120F8BD0320F8BD0320F8BD93
:100C04000320F8BD0320F8BD0320F8BD0320F8BD80
:100C14000320F8BD0320F8BD0020F8BD0120F8BD75
:100C24000320F8BD0320F8BD0320F8BD00380240BE
:100C3400C4200008600047422DE9F04104460D46F7
:100C44000368013B0E2B04D98B484FF4187100F054
:100C54005FFC072D04D9884840F2612100F058FC5C
:100C6400864B1B6803F00F03AB4280F08B80EAB223
:100C7400824B1A701B6803F00F03AB4240F054819F
:100C8400236813F0020F1DD0A368A3B1802B12D0E8
:100C9400902B10D0A02B0ED0B02B0CD0C02B0AD090
:100CA400D02B08D0E02B06D0F02B04D0724840F2B1
:100CB400772100F02DFC724B996821F0F001A268B5
:100CC4000A439A60236813F0010F00F0EA80636816
:100CD400022B04D9684840F27E2100F019FC6368B5
:100CE400012B05D1664A126812F4003F0ED11EE1B1
:100CF400022B05D1624A126812F0007F06D119E175
:100D04005F4A126812F0020F00F017815C4A916882
:100D140021F003010B439360FFF708FB054663686A
:100D2400012B0FD105E0FFF701FB401BB84203D9AB
:100D340006E1534E41F28837B36803F00C03042BE9
:100D4400F1D1AEE0022B15D105E0FFF7EFFA401B1D
:100D5400B84203D9F7E04A4E41F28837B36803F04A
:100D64000C03082BF1D19CE0FFF7E0FA401BB842DA
:100D740003D9EBE0424E41F28837B36813F00C0F0D
:100D8400F2D18EE0236813F0020F1DD0A368A3B143
:100D9400802B12D0902B10D0A02B0ED0B02B0CD0C7
:100DA400C02B0AD0D02B08D0E02B06D0F02B04D0D7
:100DB400314840F2C62100F0ABFB314B996821F079
:100DC400F001A2680A439A60236813F0010F60D00F
:100DD4006368022B04D9284840F2CD2100F098FB27
:100DE4006368012B05D1264A126812F4003F0ED124
:100DF400AFE0022B05D1224A126812F0007F06D11F
:100E0400AAE01F4A126812F0020F00F0A8801C4AE0
:100E1400916821F003010B439360FFF787FA0646BC
:100E24006368012B0FD105E0FFF780FA801B404572
:100E340003D997E0124F41F28838BB6803F00C03E2
:100E4400042BF1D125E0022B1CD105E0FFF76EFA4B
:100E5400801B404503D988E0094F41F28838BB68BC
:100E640003F00C03082BF1D113E0FFF75FFA801BAA
:100E740040450AD97CE000BFC4200008003C024081
:100E8400003802403D4F41F28838BB6813F00C0F24
:100E9400EBD1EAB23A4B1A701B6803F00F03AB4272
:100EA40069D1236813F0040F19D0E36883B1B3F553
:100EB400805F0DD0B3F5A05F0AD0B3F5C05F07D053
:100EC400B3F5E05F04D02F4840F21D3100F020FB61
:100ED4002A4B996821F4E051E2680A439A60236836
:100EE40013F0080F1AD0236983B1B3F5805F0DD0D6
:100EF400B3F5A05F0AD0B3F5C05F07D0B3F5E05FE8
:100F040004D020484FF4497100F002FB1B4B9A684F
:100F140022F46042216942EAC1029A600F20FFF77D
:100F2400CFF90020BDE8F0810120BDE8F081012067
:100F3400BDE8F0810120BDE8F0810120BDE8F08129
:100F44000320BDE8F0810320BDE8F0810320BDE863
:100F5400F0810120BDE8F0810120BDE8F08101208D
:100F6400BDE8F0810320BDE8F0810320BDE8F081F5
:100F74000320BDE8F0810120BDE8F0810038024083
:100F8400003C0240C4200008284B9B6803F00C037B
:100F9400042B49D0082B01D025487047234B5868AF
:100FA40000F03F005A6802F480024FF4800393FA81
:100FB400A3F3B3FA83F3DBB232FA03F311D01D4B7C
:100FC400B3FBF0F0194B5A6847F6C0731A4093FA12
:100FD400A3F3B3FA83F3DBB222FA03F303FB00F0C7
:100FE40010E0134BB3FBF0F0104B5A6847F6C07394
:100FF4001A4093FAA3F3B3FA83F3DBB222FA03F3AE
:1010040003FB00F0094B5A6802F440324FF44033BA
:1010140093FAA3F3B3FA83F3DBB222FA03F30133B3
:101024005B00B0FBF3F070470248704700380240A1
:101034000024F40000127A0008B5FFF7A5FF094B5D
:101044009A6802F0F002F02393FAA3F3B3FA83F35D
:10105400DBB222FA03F3044AD35CD840034B186092
:1010640008BD00BF00380240B42000080C00002076
:10107400704700BF10B504460368234A934237D033
:10108400B3F1804F34D0A2F57C42934230D002F5C4
:10109400806293422CD002F58062934228D002F5FC
:1010A4008062934224D002F58062934220D002F5FC
:1010B400704293421CD002F57052934218D002F54C
:1010C4008062934214D002F58062934210D0A2F55C
:1010D400983293420CD002F58062934208D002F514
:1010E4008062934204D0094840F2611100F010FA82
:1010F4002368DA6842F00102DA6023681A6842F071
:1011040001021A60002010BD00000140F420000814
:10111400704700BF704700BF704700BF704700BFF3
:10112400704700BF10B5044603681A6912F0020F35
:1011340017D0DA6812F0020F13D06FF002021A61AE
:101144000123037603689B6913F0030F02D0FFF7B2
:10115400E3FF04E0FFF7DEFF2046FFF7DFFF002395
:10116400237623681A6912F0040F19D0DA6812F092
:10117400040F15D06FF004021A610223237623684A
:101184009B6913F4407F03D02046FFF7C5FF05E0B9
:101194002046FFF7BFFF2046FFF7C0FF002323765A
:1011A40023681A6912F0080F19D0DA6812F0080FD0
:1011B40015D06FF008021A61042323762368DB69D3
:1011C40013F0030F03D02046FFF7A6FF05E02046E7
:1011D400FFF7A0FF2046FFF7A1FF00232376236833
:1011E4001A6912F0100F19D0DA6812F0100F15D026
:1011F4006FF010021A61082323762368DB6913F465
:10120400407F03D02046FFF787FF05E02046FFF725
:1012140081FF2046FFF782FF0023237623681A69A3
:1012240012F0010F09D0DA6812F0010F05D06FF047
:1012340001021A612046FFF76BFF23681A6912F056
:10124400800F09D0DA6812F0800F05D06FF08002A9
:101254001A61204600F024F923681A6912F0400F3D
:1012640009D0DA6812F0400F05D06FF040021A611D
:101274002046FFF755FF23681A6912F0200F09D0A2
:10128400DA6812F0200F05D06FF020021A612046B0
:1012940000F004F910BD00BF0368454A904214D021
:1012A400B0F1804F13D0A2F57C42904211D002F5E8
:1012B400806290420FD002F5806290420DD002F518
:1012C400784290420BD101220AE0012208E0012277
:1012D40006E0012204E0012202E0012200E00022F3
:1012E4001AB123F070034A681343314A90422CD058
:1012F400B0F1804F2BD0A2F57C42904229D002F568
:101304008062904227D002F58062904225D002F597
:101314007842904223D002F57052904221D002F5D7
:10132400806290421FD002F5806290421DD0A2F5E7
:10133400983290421BD002F58062904219D002F597
:101344008062904217D1012216E0012214E00122AA
:1013540012E0012210E001220EE001220CE0012241
:101364000AE0012208E0012206E0012204E0012251
:1013740002E0012200E000221AB123F44073CA689B
:10138400134303608B68C3620B688362084B984203
:1013940005D003F58063984203D1012302E00123C1
:1013A40000E000230BB10B69036301234361704721
:1013B4000000014010B50446002869D00368354A8E
:1013C400934236D0B3F1804F33D0A2F57C4293429E
:1013D4002FD002F5806293422BD002F580629342B3
:1013E40027D002F58062934223D002F580629342B3
:1013F4001FD002F5704293421BD002F57052934203
:1014040017D002F58062934213D002F580629342B2
:101414000FD0A2F5983293420BD002F5806293422A
:1014240007D002F58062934203D01B48D12100F01B
:101434006FF8A3685BB1102B09D0202B07D0402B89
:1014440005D0602B03D01448D22100F061F8236941
:101454004BB1B3F5807F06D0B3F5007F03D00E48BF
:10146400D32100F055F894F8393013F0FF0F02D16E
:101474002046FFF7FDFD022384F83930214651F858
:10148400040BFFF709FF012384F83930002010BD55
:10149400012010BD00000140F4200008704700BF87
:1014A400704700BFFEE700BF08B5034800F056F8D8
:1014B4000120FFF7F7FF00BF2421000808B50D4BFA
:1014C4001B6813B90C4A0B4B1A600A4B1B68033098
:1014D40020F003001844094A904206D900F07CF930
:1014E4000C2303604FF0FF3008BD024A1060184619
:1014F40008BD00BF800000205801002000FC01202E
:1015040001230360014B0B60704700BF04000020FF
:1015140008B503460A460348194600F005F8FFF7E4
:10152400C3FF00BF782100080FB400B583B004AB3B
:1015340053F8042B01930848802100F085F9011E1B
:1015440003DD054800F038F80146084603B05DF8AD
:1015540004EB04B0704700BF8800002010B50446B7
:1015640000F040F90146204600F026F80248012127
:1015740000F022F810BD00BFA421000810B400241C
:101584004FF0604212E0D2F8803E13F0010F04D015
:10159400D2F8003E13F0010F01D1204609E0136890
:1015A400002BFCD003781370013401308C42EAD351
:1015B40008465DF8044B704708B5FFF7DFFF08BD28
:1015C4000C4B1A6842F001021A60002199601A68F3
:1015D40022F0847222F480321A60074A5A601A6830
:1015E40022F480221A60D9604FF00062034B9A60A3
:1015F400704700BF003802401030002400ED00E0C6
:1016040010B592B0174B1A6C42F080521A64A3F5CD
:10161400E4331A6842F440421A60012301930293AE
:10162400022407944FF480030893082309934FF48A
:10163400A8730A930B9407230C9301A8FFF7A4F84B
:101644000F230D930E9400230F934FF4A053109384
:101654004FF4805311930DA80521FFF7EDFA12B052
:1016640010BD00BF0038024008B5FFF7A9FFFEF720
:101674003BFEFFF7C5FF08BD08B54FF4704000F00E
:1016840031F841F28830FEF757FE4FF4304000F055
:1016940043F8F6E710B586B0044601220D4B1A70E4
:1016A40010F4704F04D118B90B481921FFF730FF1B
:1016B4000A4A136B43F00803136301230293019452
:1016C400002303930493064801A9FEF7CBFE06B05A
:1016D40010BD00BF14010020D421000800380240CE
:1016E400000C024010B5044610F4704F04D118B930
:1016F40006482621FFF70CFF054B1B7823B105484C
:1017040021460122FFF718F810BD00BFD4210008BC
:1017140014010020000C024010B5044610F4704F70
:1017240004D118B905483521FFF7F2FE044B1B78A4
:101734001BB104482146FFF717F810BDD421000857
:1017440014010020000C024008B50A4A136C43F04F
:10175400040313640848094B036000230361836096
:101764004AF20F43436040F2E733C360FFF722FEBF
:1017740008BD00BF003802401801002000080040E6
:1017840008B51E2000210122FEF702FE1E20FEF7EE
:1017940041FE0248FFF76EFC08BD00BF180100209F
:1017A40008B54FF47040FFF775FFFFF7CDFFFFF763
:1017B400E7FF08BD08B5FEF7B1FDFEF74FFE08BD13
:1017C40008B50448FFF7AEFC4FF48040FFF7A4FFD0
:1017D40008BD00BF18010020014B1868704700BF06
:1017E40070000020034613F8012B002AFBD1181ABD
:1017F4000138704730B5141E9BB0054604DA8B23BC
:1018040003604FF0FF301CE04FF40272ADF80C207F
:1018140014BF04F1FF322246029205924FF6FF7282
:1018240000910491ADF80E2069461A461E9B00F003
:1018340075F8431CBCBF8B232B6014B1009B0022A2
:101844001A701BB030BD000073B50093054B0646FB
:101854000D461446186831462A462346FFF7CAFF48
:1018640002B070BD700000202DE9F0478E68B342CD
:1018740082460C469046994640D38A8912F4906F6A
:101884003AD0256809696F1A6569022305EB450595
:1018940095FBF3F57B1C4B449D4238BF1D46530515
:1018A4000FD5294600F03CFB064698B121693A461B
:1018B40000F0CBFAA38923F4906343F08003A3815F
:1018C40013E02A4600F082FB064670B950462169AF
:1018D40000F0E2FA0C23CAF80030A38943F0400375
:1018E400A3814FF0FF30BDE8F087266165613E4477
:1018F400ED1B2660A5604E46B14500D24E463246E9
:101904002068414600F0ACFAA3689B1BA3602368DF
:101914001E4426600020BDE8F08700002DE9F04356
:101924009DB0064603938B891C060D4690460CD544
:101934000B6953B9402100F0F3FA2860286110B90B
:101944000C233360CCE040236B61002309932023F4
:101954008DF8293030238DF82A3043461C4613F87D
:10196400012B1AB9B4EB08090FD002E0252AF5D1EE
:10197400F8E73046294642464B46FFF775FF0130EB
:1019840000F0A980099B4B4409932378002B00F0B5
:10199400A28000234FF0FF3204930793059206932D
:1019A4008DF853301A9304F101084446DFF8489146
:1019B40021784846052200F039FA08F10108049B11
:1019C40030B1C9EB00000122824013430493ECE7D9
:1019D400D80644BF20228DF85320190744BF2B2278
:1019E4008DF8532022782A2A02D0079923460EE044
:1019F400039A111D12680391002ABBBF524243F09F
:101A0400020307920792B8BF049301340AE01C460C
:101A140001332278303A092A03D80A2000FB012135
:101A2400F5E7079123782E2B1AD163782A2B0AD154
:101A3400039B1A1D1B680392002BB8BF4FF0FF33A2
:101A4400023405930CE0611C00220C46013123781A
:101A5400303B092B03D80A2000FB0232F5E705923C
:101A6400DFF8988021784046032200F0DFF938B18E
:101A7400049AC8EB000040238340134304930134C9
:101A840021781A488DF82810062204F1010800F084
:101A9400CDF988B1164B33B9039B073323F0070301
:101AA4000833039313E003AB0093304604A92A469A
:101AB400104BAFF3008007E003AB0093304604A95A
:101AC4002A460C4B00F092F8421C074603D0099BAF
:101AD4003B44099341E7AB895B0601D4099801E0D3
:101AE4004FF0FF301DB0BDE8F08300BFF0210008C7
:101AF400000000006D180008E6210008EC21000831
:101B04002DE9F84391461F468A680B69DDF8208069
:101B14009342B8BF1346C9F8003091F843200646F3
:101B24000C4612B10133C9F800302368990642BF4C
:101B3400D9F800300233C9F80030256815F00605DD
:101B44001CD094F843302268003318BF0123920656
:101B54001FD5E1185A1C302081F84300224494F820
:101B6400451082F84310023313E03046394604F13D
:101B740019020123C047013007D00135E368D9F8C1
:101B840000209B1A9D42F0DBDBE74FF0FF30BDE8FD
:101B9400F8833046394604F14302C0470130F4D09B
:101BA4002268D9F80050E36802F00602042A08BF4C
:101BB4005D1B2269A3680CBF25EAE57500259342E5
:101BC400C4BF9B1AED184FF00009A9450ADA304644
:101BD400394604F11A020123C0470130D5D009F176
:101BE4000109F2E70020BDE8F88300002DE9FF4178
:101BF4000C461746227E6E2A984606460A9B01F139
:101C0400430100F0AF8012D8632A23D00AD8002AF7
:101C140000F0BC80582A40F0CB8084F84520DFF8DF
:101C240004E257E0642A1ED0692A1CD0C0E0732A5B
:101C340000F0B08009D86F2A2ED0702A40F0B88006
:101C4400226842F0200222603FE0752A24D0782ADC
:101C54003BD0ADE01A68111D1960136884F8423056
:101C640004F14205A8E020681A6810F0800F02D041
:101C7400101D186008E010F0400F02F10400186015
:101C840002D0B2F9003000E01368002B3EDA2D22B6
:101C94005B4284F8432039E020681A6810F0800F12
:101CA40002D0101D186007E010F0400F02F104008C
:101CB400186001D0138800E01368227EDFF864E125
:101CC4006F2A0CBF08220A221CE07822DFF858E1B0
:101CD40084F845202268186812F0800F00F104058A
:101CE4001D6003D1550601D5038800E00368D007C1
:101CF40044BF42F0200222601BB9226822F0200275
:101D040022601022002084F8430002E0DFF814E18E
:101D14000A226568A560002DA2BF206820F0040097
:101D2400206003B965B10D46B3FBF2F002FB10333A
:101D34001EF8033005F8013D03460028F4D100E005
:101D44000D46082A0BD12368DA0708D5236962688F
:101D54009A42DEBF302305F8013C05F1FF35491BEB
:101D640021612EE025681A68606915F0800F03D0A0
:101D7400151D1D60136808E015F0400F02F10405FD
:101D84001D60136801D0188000E0186000232361EF
:101D94000D4616E01A68111D196015686268284618
:101DA400002100F043F808B1401B6060636804E060
:101DB40004F1420584F8422001232361002384F8BE
:101DC4004330CDF800803046214603AA3B46FFF756
:101DD40097FE013002D14FF0FF301FE03046394604
:101DE4002A462369C0470130F5D023689B0705D4F0
:101DF400E068039B9842B8BF18460FE00025E368EB
:101E0400039A9B1A9D42F3DA3046394604F11902CB
:101E14000123C0470130DED00135F0E704B0BDE84E
:101E2400F08100BFF72100080822000810B5C9B2EC
:101E340002449042034606D01C788C4200F1010013
:101E4400F7D1184610BD002010BD10B5431E0A443A
:101E5400914204D011F8014B03F8014FF8E710BD8B
:101E6400814210B501EB020301D3421E0BE09842FC
:101E7400FBD28118D21AD34204D013F8014D01F8D1
:101E8400014DF8E710BD994204D011F8014B02F856
:101E9400014FF8E710BD000030B500293DD051F8DE
:101EA400042C0B1F1D49002AB8BF9B180A680C4656
:101EB40012B95A600B6030BD93420DD2196858189C
:101EC400904201BF5A5852181A6042685A602360FF
:101ED40030BD994203D80A4651680029F9D11468E3
:101EE40015199D420AD11B682344D01888421360F7
:101EF40013D10868034413604B680DE002D90C2326
:101F0400036030BD1C681819884204BF086849681A
:101F1400596004BF00191860536030BD0C010020E3
:101F240070B5CC1C24F0030408340C2C38BF0C24EA
:101F3400002C064603DA0C233360002070BD8C426B
:101F4400F9D3204A136810461946A1B10A68121B36
:101F54000ED40B2A03D90A608B188C501FE08B42D5
:101F64000DBF5A684A685A60026018BF0B4616E0F3
:101F74000B464968E9E7144D2B681BB9304600F05D
:101F84004BF828603046214600F046F8421C0346D0
:101F9400D1D0C51C25F0030585420AD11C6003F18C
:101FA4000B001A1D20F00700821A0AD051429950E2
:101FB40070BD3046E91A00F02FF80130BBD02B4633
:101FC400ECE770BD0C01002008010020F8B50746BD
:101FD40015460E4621B91146BDE8F840FFF7A0BFEB
:101FE4001AB9FFF759FF2846F8BD00F025F8A842B2
:101FF4000ED238462946FFF793FF044650B13146C6
:102004002A46FFF722FF38463146FFF745FF01E035
:102014003046F8BD2046F8BD38B5064C00230546C9
:1020240008462360FFF74AFA431C02D1236803B130
:102034002B6038BD1001002051F8040C0028BEBFED
:10204400091851F8043CC018043870472E2E2F7319
:10205400797374656D2F7372632F73746D33326685
:10206400342D68616C2F73746D3332663478785F05
:1020740068616C5F636F727465782E6300000000A2
:102084002E2E2F73797374656D2F7372632F73748F
:102094006D333266342D68616C2F73746D33326620
:1020A4003478785F68616C5F6770696F2E630000D5
:1020B40000000000010203040102030406070809EA
:1020C4002E2E2F73797374656D2F7372632F73744F
:1020D4006D333266342D68616C2F73746D333266E0
:1020E4003478785F68616C5F7263632E630000000C
:1020F4002E2E2F73797374656D2F7372632F73741F
:102104006D333266342D68616C2F73746D333266AF
:102114003478785F68616C5F74696D2E63000000C9
:1021240061626F727428292C2065786974696E67FE
:102134002E2E2E002C2066756E6374696F6E3A2005
:1021440000000000617373657274696F6E2022254C
:102154007322206661696C65643A2066696C652047
:10216400222573222C206C696E6520256425732535
:10217400730A00006173736572745F706172616DDC
:102184002829206661696C65643A2066696C65205B
:10219400222573222C206C696E652025640A0000B8
:1021A4000A0000006D61696E28617267633D2564F1
:1021B4002C20617267763D5B000000002C2000003B
:1021C40022257322000000005D293B0A0000000064
:1021D4002E2E2F6273702F6273702E630000000026
:1021E4004300232D302B2000686C4C006566674546
:1021F400464700303132333435363738394142437B
:10220400444546003031323334353637383961622B
:05221400636465660033
:10221C007856341284000020000000000024F400E2
:10222C0000000000000000000000000000000000A2
:10223C000000000000000000000000000000000092
:10224C00E421000800000000000000000000000075
:10225C000000000000000000000000000000000072
:10226C000000000000000000000000000000000062
:10227C000000000000000000000000000000000052
:08228C00100000203254769886
:040000050800018965
:00000001FF
