:020000040800F2
:1000000000000220950200089D020008A1020008DD
:10001000A5020008A9020008AD02000800000000C7
:10002000000000000000000000000000B102000815
:10003000B502000800000000B9020008911700088E
:10004000C1020008C1020008C1020008C102000884
:10005000C1020008C1020008C1020008C102000874
:10006000C1020008C1020008C1020008C102000864
:10007000C1020008C1020008C1020008C102000854
:10008000C1020008C1020008C1020008C102000844
:10009000C1020008C1020008C1020008C102000834
:1000A000C1020008C1020008C1020008C102000824
:1000B000C1020008C10200089D170008C102000823
:1000C000C1020008C1020008C1020008C102000804
:1000D000C1020008C1020008C1020008C1020008F4
:1000E000C1020008C1020008C1020008C1020008E4
:1000F000C1020008C1020008C1020008C1020008D4
:10010000C1020008C1020008C1020008C1020008C3
:10011000C1020008C1020008C1020008C1020008B3
:10012000C1020008C1020008C1020008C1020008A3
:10013000C1020008C1020008C1020008C102000893
:10014000C1020008C1020008C1020008C102000883
:10015000C1020008C1020008C1020008C102000873
:10016000C1020008C1020008C1020008C102000863
:10017000C1020008C1020008C1020008000000001E
:10018000C1020008C1020008314B324A1360324AF2
:100190001360324B02E000221A600433304A93426B
:1001A000F9D32C4B1B6813B92B4B1B6803B1FEE72B
:1001B000274B2C4A13602C4A13602C4B2C4A03E02B
:1001C00011681960043304322A498B42F8D3254B55
:1001D0001A68294B9A4204D1234B1A681B689A4229
:1001E00000D0FEE700B583B001F034FA01A86946FB
:1001F00001F076F9214C224B1C1BA410002504E0D1
:100200001E4B53F8253098470135AC42F8DC1D4CA5
:100210001D4B1C1BA410002504E01A4B53F825307D
:1002200098470135AC42F8DC0198009901F01AFAC0
:100230000546164C164B1C1BA41004E0013C134B46
:1002400053F824309847002CF8DC284601F01AF9BE
:10025000BABADECA78000020A80100207800002089
:10026000AC010020000000207400002000000020ED
:10027000082200087800002078563412C4020008D2
:10028000C4020008C4020008C4020008C402000836
:10029000C402000808B5FFF777FF00BFFEE700BF04
:1002A000FEE700BFFEE700BFFEE700BFFEE700BFBE
:1002B000FEE700BFFEE700BFFEE700BFFEE700BFAE
:0402C000FEE700BF96
:1002C40010B5044600F0A8FE064BA3FB00308009DD
:1002D40000F0ACF84FF0FF302146002200F058F84F
:1002E400002010BDD34D621008B50B4B1A6842F4C0
:1002F40000721A601A6842F480621A601A6842F442
:1003040080721A60032000F025F80F20FFF7D8FF51
:1003140001F034FA002008BD003C0240024A136890
:1003240001331360704700BF7C000020014B186844
:10033400704700BF7C00002010B582B00190FFF729
:10034400F5FF0446FFF7F2FF001B019B9842F9D327
:1003540002B010BD10B50446C31E042B03D90A48CD
:10036400A42101F0C3F804F00700084AD36823F479
:10037400E0631B041B0C43EA002040F0BF6040F420
:100384000030D06010BD00BF3C20000800ED00E04C
:1003940070B504460E4615460F2A03D91A48BC21E7
:1003A40001F0A4F80F2E03D91748BD2101F09EF8DF
:1003B400164BDB68C3F30223C3F10702042A28BFE8
:1003C4000422191D062901D9D81E00E000200123AA
:1003D40003FA02F2013A324002FA00F183405A1E53
:1003E4002A400A43002C06DA04F00F041201D2B2A8
:1003F400074B1A5570BD1201D2B204F1604404F5E2
:10040400614484F8002370BD3C20000800ED00E046
:1004140014ED00E0410900F01F0001238340024A6B
:1004240042F82130704700BF00E100E00138B0F12C
:10043400807F0AD2064B5860F021064A82F82310C6
:100444000020986007221A6070470120704700BF9F
:1004540010E000E000ED00E0704700BF08B5FFF7D2
:10046400FBFF08BD2DE9F84F80460F460B881BB9EA
:10047400AC48C32101F03AF87B68012B22D9112B37
:1004840020D0022B1ED0122B1CD0A74A934219D085
:1004940002F58012934215D002F58012934211D0D6
:1004A400A2F5F81293420DD002F58012934209D0BE
:1004B40002F58012934205D0032B03D09948C4213E
:1004C40001F014F8BB68022B03D99648C52101F04A
:1004D4000DF8002420E1A1460125A5403B6803EA6C
:1004E400050AAA4540F017817B68022B01D0122B24
:1004F4004AD13B69C3B3092B36D0ABB3A3B39BB387
:1005040093B3012B30D02FD0022B2DD02CD02BD055
:10051400032B29D0042B27D026D025D0052B23D07C
:1005240022D0092B20D0062B1ED0092B1CD0072B40
:100534001AD019D018D0082B16D015D014D0092BE6
:1005440012D011D00A2B0FD00ED00B2B0CD00C2BA9
:100554000AD009D00D2B07D00C2B05D00F2B03D0BC
:100564007048D62100F0C2FFE608083658F8261075
:1005740004F0070080000F23834021EA03023B6953
:100584008340134348F82630D8F800304FEA440B30
:10059400032606FA0BF6F64306EA03027B6803F029
:1005A400030303FA0BF31343C8F800307B685A1EA5
:1005B400012A03D9112B01D0122B1CD1FB68032B68
:1005C40003D95848E92100F091FFD8F8083006EA29
:1005D4000302FB6803FA0BF31343C8F80830D8F896
:1005E400043023EA05037D68C5F3001505FA09F50F
:1005F4001D43C8F80450D8F80C303340BE6806FADE
:100604000BF61E43C8F80C607B6813F0805F00F0A3
:100614008280464A536C43F480435364A308991C74
:10062400A2F5803252F8211004F0030080000F225A
:10063400824021EA02013E4A904537D002F58062A9
:10064400904531D002F5806290452BD002F580624E
:10065400904525D002F5806290451FD002F5806256
:10066400904519D002F58062904513D002F580625E
:1006740090450DD002F58062904507D002F5806266
:10068400904501D1092212E00A2210E008220EE06E
:1006940007220CE006220AE0052208E0042206E014
:1006A400032204E0022202E0012200E00022824050
:1006B4000A4302331F4941F823201F4B1A686FEA8B
:1006C4000A0303EA0201786810F4803F01D04AEA81
:1006D4000201194A1160526803EA0201786810F4B1
:1006E400003F01D04AEA0201134A5160926803EACA
:1006F4000201786810F4801F01D04AEA02010E4A10
:100704009160D2681340796811F4001F01D04AEA5D
:100714000203094AD36001340F2C7FF6DCAEBDE836
:10072400F88F00BF7020000800001110003802404C
:100734000000024000380140003C014070B505460D
:1007440014460E4621B908484FF4D37100F0CEFE8A
:10075400012C04D9044840F2A71100F0C7FE0CB1E3
:100764002E8370BD6E8370BD7020000838B50546B9
:100774000C4621B9044840F2BD1100F0B7FE6B6984
:100784005C406C6138BD00BF7020000838B5044679
:1007940003680F2B03D9B348FD2100F0A7FE23689B
:1007A40013F0010F61D06368012B06D9052B04D027
:1007B400AC484FF4817100F099FEAB4B9B6803F099
:1007C4000C03042B0AD0A84B9B6803F00C03082BE2
:1007D4000ED1A54B5B6813F4800F09D0A24B1B68A4
:1007E40013F4003F41D06368012B40F0FE813CE0EC
:1007F40000229E4B1A70FFF799FD054607E0FFF7AC
:1008040095FD401B41F28833984200F2F081964BEB
:100814001B6813F4003FF2D12279944B1A70636879
:10082400012B11D1FFF782FD054607E0FFF77EFD9E
:10083400401B41F28833984200F2DB818A4B1B68EB
:1008440013F4003FF2D010E0FFF770FD054607E017
:10085400FFF76CFD401B41F28833984200F2CB81D4
:10086400814B1B6813F4003FF2D1236813F0020F8D
:100874006DD0E368012B04D97A484FF4A17100F0DC
:1008840035FE23691F2B04D9764840F2431100F04A
:100894002DFE754B9B6813F00C0F0AD0724B9B68AE
:1008A40003F00C03082B1CD16F4B5B6813F4800F0F
:1008B40017D16D4B1B6813F0020F03D0E368012BB3
:1008C40040F09B816848026822F0F8012269F8230D
:1008D40093FAA3F3B3FA83F3DBB29A400A430260B8
:1008E40035E0E3680BB30122614B1A60FFF71EFD8C
:1008F400054605E0FFF71AFD401B642800F27F81DE
:10090400594B1B6813F0020FF4D05748036823F0C7
:10091400F8012269F82393FAA3F3B3FA83F3DBB261
:100924009A4041EA0203036011E00022504B1A602E
:10093400FFF7FCFC054605E0FFF7F8FC401B6428C4
:1009440000F25F81484B1B6813F0020FF4D1236857
:1009540013F0080F2ED06369012B04D941484FF4DA
:10096400C17100F0C3FD636993B10122414B1A6068
:10097400FFF7DCFC054605E0FFF7D8FC401B6428C4
:1009840000F24181384B5B6F13F0020FF4D011E099
:100994000022384B1A60FFF7C9FC054605E0FFF753
:1009A400C5FC401B642800F230812F4B5B6F13F0B1
:1009B400020FF4D1236813F0040F6ED0A368012B47
:1009C40006D9052B04D027484FF4D67100F08EFDCC
:1009D400254A136C43F080531364A2F5E432136880
:1009E40043F480731360FFF7A1FC054605E0FFF7AD
:1009F4009DFC401B642800F20A811F4B1B6813F402
:100A0400807FF4D000221D4B1A70FFF78FFC05463F
:100A140007E0FFF78BFC401B41F28833984200F259
:100A2400F880114B1B6F13F0020FF2D1227A134B93
:100A34001A70A368012B11D1FFF778FC054607E073
:100A4400FFF774FC401B41F28833984200F2E380C4
:100A5400054B1B6F13F0020FF2D01EE0FFF766FC8C
:100A6400054615E0B0200008003802400238024074
:100A740000004742800E4742007000407038024038
:100A8400FFF754FC401B41F28833984200F2C580C2
:100A9400684B1B6F13F0020FF2D1A369022B04D928
:100AA40065484FF4F87100F021FDA369002B00F0B4
:100AB400B680604A926802F00C02082A00F0B18005
:100AC400022B7FD1E3693BB1B3F5800F04D05A48C0
:100AD40040F2F91100F00AFD236A3F2B04D956486D
:100AE4004FF4FD7100F002FD636AC03BF02B04D9A2
:100AF400514840F2FB1100F0F9FCA36A022B0AD022
:100B0400042B08D0062B06D0082B04D04A484FF4F7
:100B1400FE7100F0EBFCE36A043B0B2B04D946485E
:100B240040F2FD1100F0E2FC0022444B1A60FFF792
:100B3400FDFB054604E0FFF7F9FB401B642872D86F
:100B44003C4B1B6813F0007FF5D1216A626A47F6BB
:100B5400C07393FAA3F3B3FA83F3DBB29A4011435D
:100B6400A36A5B08013B4FF4403292FAA2F2B2FA54
:100B740082F2D2B293400B43E26943EA0201E36A90
:100B84004FF0706292FAA2F2B2FA82F2D2B203FA8F
:100B940002F241EA020343F00053264A5360012261
:100BA400264B1A60FFF7C2FB044604E0FFF7BEFBC6
:100BB400001B642839D81F4B1B6813F0007FF5D045
:100BC400002038BD00221D4B1A60FFF7AFFB04461E
:100BD40004E0FFF7ABFB001B642828D8154B1B6807
:100BE40013F0007FF5D1002038BD012038BD03206B
:100BF40038BD032038BD032038BD012038BD032093
:100C040038BD032038BD032038BD032038BD032080
:100C140038BD032038BD032038BD032038BD002073
:100C240038BD012038BD032038BD032038BD032062
:100C340038BD00BF00380240B020000860004742C1
:100C440070B504460D460368013B0E2B04D9884851
:100C54004FF4187100F04AFC072D04D9844840F27F
:100C6400612100F043FC834B1B6803F00F03AB428C
:100C740080F08B80EAB27F4B1A701B6803F00F037D
:100C8400AB4240F05181236813F0020F1DD0A368DA
:100C9400A3B1802B12D0902B10D0A02B0ED0B02B50
:100CA4000CD0C02B0AD0D02B08D0E02B06D0F02BD0
:100CB40004D06F4840F2772100F018FC6E498B682D
:100CC40023F0F002A36813438B60236813F0010F31
:100CD40000F0E8806368022B04D9654840F27E2165
:100CE40000F004FC6268012A05D1634B1B6813F40D
:100CF400003F0ED11AE1022A05D15F4B1B6813F0A5
:100D0400007F06D114E15C4B1B6813F0020F00F066
:100D1400118159498B6823F0030313438B60FFF758
:100D240005FB05466368012B0FD107E0FFF7FEFAC8
:100D3400401B41F28833984200F2FE804E4B9B6880
:100D440003F00C03042BF1D1ACE0022B17D107E024
:100D5400FFF7ECFA401B41F28833984200F2EE8030
:100D6400454B9B6803F00C03082BF1D19AE0FFF785
:100D7400DDFA401B41F28833984200F2E1803E4B99
:100D84009B6813F00C0FF2D18CE0236813F0020F70
:100D94001DD0A368A3B1802B12D0902B10D0A02B10
:100DA4000ED0B02B0CD0C02B0AD0D02B08D0E02B07
:100DB40006D0F02B04D02E4840F2C62100F096FB5A
:100DC4002D498B6823F0F002A36813438B602368DA
:100DD40013F0010F5ED06368022B04D9244840F25B
:100DE400CD2100F083FB6268012A05D1224B1B68E8
:100DF40013F4003F0ED1A5E0022A05D11E4B1B6857
:100E040013F0007F06D19FE01B4B1B6813F0020F09
:100E140000F09C8018498B6823F0030313438B6014
:100E2400FFF784FA06466368012B0FD107E0FFF74A
:100E34007DFA801B41F28833984200F289800E4B80
:100E44009B6803F00C03042BF1D123E0022B1CD18B
:100E540006E0FFF76BFA801B41F28833984279D899
:100E6400054B9B6803F00C03082BF2D112E000BF82
:100E7400B0200008003C024000380240FFF756FA58
:100E8400801B41F28833984266D8354B9B6813F037
:100E94000C0FF3D1EAB2334B1A701B6803F00F0343
:100EA400AB425BD1236813F0040F19D0E36883B11C
:100EB400B3F5805F0DD0B3F5A05F0AD0B3F5C05F82
:100EC40007D0B3F5E05F04D0274840F21D3100F0AD
:100ED4000DFB23498B6823F4E052E36813438B60D2
:100EE400236813F0080F1AD0236983B1B3F5805F28
:100EF4000DD0B3F5A05F0AD0B3F5C05F07D0B3F54A
:100F0400E05F04D018484FF4497100F0EFFA144A36
:100F1400936823F46043216943EAC10393600F207B
:100F2400FFF7CEF9002070BD012070BD012070BD17
:100F3400012070BD012070BD032070BD032070BD71
:100F4400032070BD012070BD012070BD012070BD63
:100F5400032070BD032070BD032070BD012070BD4F
:100F640000380240003C0240B0200008274B9B6838
:100F740003F00C03042B46D0082B01D024487047FF
:100F8400224B586800F03F00596801F480014FF487
:100F9400800292FAA2F2B2FA82F2D2B231FA02F3E7
:100FA40010D01C4BB3FBF0F3184A506847F6C072DC
:100FB400104092FAA2F2B2FA82F2D2B2D04000FB0E
:100FC40003F30FE0124BB3FBF0F3104A506847F6FB
:100FD400C072104092FAA2F2B2FA82F2D2B2D040B7
:100FE40000FB03F3094A506800F440304FF44032E8
:100FF40092FAA2F2B2FA82F2D2B2D04001304000A8
:10100400B3FBF0F070470348704700BF003802405C
:101014000024F40000127A0008B5FFF7A7FF094B7B
:101024009B6803F0F002F02393FAA3F3B3FA83F37B
:10103400DBB222FA03F3044AD35CD840034B1860B2
:1010440008BD00BF00380240A02000080C000020AA
:10105400704700BF10B504460368234A934237D053
:10106400B3F1804F34D0A2F57C42934230D002F5E4
:10107400806293422CD002F58062934228D002F51C
:101084008062934224D002F58062934220D002F51C
:10109400704293421CD002F57052934218D002F56C
:1010A4008062934214D002F58062934210D0A2F57C
:1010B400983293420CD002F58062934208D002F534
:1010C4008062934204D0094840F2611100F00EFAA4
:1010D4002268D36843F00103D3602268136843F0A5
:1010E40001031360002010BD00000140E02000084F
:1010F400704700BF704700BF704700BF704700BF14
:1011040010B5044603681A6912F0020F17D0DA68A2
:1011140012F0020F13D06FF002021A61012303765A
:1011240003689B6913F0030F02D0FFF7E3FF04E0A9
:10113400FFF7DEFF2046FFF7DFFF00232376236857
:101144001A6912F0040F19D0DA6812F0040F15D0DE
:101154006FF004021A610223237623689B6913F457
:10116400407F03D02046FFF7C5FF05E02046FFF788
:10117400BFFF2046FFF7C0FF0023237623681A69C8
:1011840012F0080F19D0DA6812F0080F15D06FF0BA
:1011940008021A61042323762368DB6913F0030F22
:1011A40003D02046FFF7A6FF05E02046FFF7A0FF87
:1011B4002046FFF7A1FF0023237623681A6912F063
:1011C400100F19D0DA6812F0100F15D06FF010025A
:1011D4001A61082323762368DB6913F4407F03D064
:1011E4002046FFF787FF05E02046FFF781FF2046F2
:1011F400FFF782FF0023237623681A6912F0010F98
:1012040009D0DA6812F0010F05D06FF001021A61FB
:10121400204600F0C9FA23681A6912F0800F09D039
:10122400DA6812F0800F05D06FF080021A61204650
:1012340000F024F923681A6912F0400F09D0DA6823
:1012440012F0400F05D06FF040021A612046FFF7FC
:1012540055FF23681A6912F0200F09D0DA6812F0DA
:10126400200F05D06FF020021A61204600F004F927
:1012740010BD00BF0368454A904214D0B0F1804FBE
:1012840013D0A2F57C42904211D002F580629042C4
:101294000FD002F5806290420DD002F57842904260
:1012A4000BD101220AE0012208E0012206E001221A
:1012B40004E0012202E0012200E000221AB123F03E
:1012C40070034A681343314A90422CD0B0F1804FE6
:1012D4002BD0A2F57C42904229D002F58062904244
:1012E40027D002F58062904225D002F578429042E0
:1012F40023D002F57052904221D002F580629042D0
:101304001FD002F5806290421DD0A2F5983290421F
:101314001BD002F58062904219D002F5806290429F
:1013240017D1012216E0012214E0012212E0012269
:1013340010E001220EE001220CE001220AE0012269
:1013440008E0012206E0012204E0012202E0012279
:1013540000E000221AB123F44073CA681343036007
:101364008B68C3620B688362084B984205D003F50F
:101374008063984203D1012302E0012300E00023AB
:101384000BB10B6903630123436170470000014003
:1013940000286BD010B504460368354A934236D012
:1013A400B3F1804F33D0A2F57C4293422FD002F5A3
:1013B400806293422BD002F58062934227D002F5DB
:1013C4008062934223D002F5806293421FD002F5DB
:1013D400704293421BD002F57052934217D002F52B
:1013E4008062934213D002F5806293420FD0A2F53B
:1013F400983293420BD002F58062934207D002F5F3
:101404008062934203D01B48D12100F06FF8A36897
:101414005BB1102B09D0202B07D0402B05D0602BBB
:1014240003D01448D22100F061F823694BB1B3F51D
:10143400807F06D0B3F5007F03D00E48D32100F09F
:1014440055F894F8393013F0FF0F02D12046FFF716
:10145400FFFD022384F83930214651F8040BFFF7CD
:1014640009FF012384F83930002010BD01207047A2
:1014740000000140E0200008704700BF704700BF33
:10148400FEE700BF08B5034800F056F80120FFF757
:10149400F7FF00BF1021000808B50D4B1B6813B9F6
:1014A4000C4A0B4B1A600A4B1A68C31C23F0030343
:1014B400134409498B4206D900F084F90C230360D4
:1014C4004FF0FF3008BD02490B60104608BD00BF55
:1014D40080000020AC01002000FC012001230360F7
:1014E400014B0B60704700BF0400002008B50346A1
:1014F4000A460348194600F005F8FFF7C3FF00BF8A
:10150400642100080FB400B583B004AB53F8042B76
:1015140001930848802100F08DF9011E03DD054880
:1015240000F03EF80146084603B05DF804EB04B051
:10153400704700BF8800002010B5044600F048F949
:101544000146204600F02CF80248012100F028F85A
:1015540010BD00BF9021000810B400221AE04FF023
:101564006043D3F8803E13F0010F06D04FF0604380
:10157400D3F8003E13F0010F01D110460DE04FF0F7
:1015840060431B68002BFAD004784FF060431C7052
:10159400013201308A42E2D308465DF8044B7047B9
:1015A40008B5FFF7D9FF08BD0C4B1A6842F00102D9
:1015B4001A60002199601A6822F0847222F4803241
:1015C4001A60074A5A601A6822F480221A60D960A5
:1015D4004FF00062034B9A60704700BF003802402E
:1015E4001030002400ED00E010B592B0174A136CDF
:1015F40043F080531364A2F5E432136843F4404388
:101604001360012301930293022407944FF480038F
:101614000893082309934FF4A8730A930B940723A0
:101624000C9301A8FFF7B2F80F230D930E94002337
:101634000F934FF4A05310934FF4805311930DA8BC
:101644000521FFF7FDFA12B010BD00BF00380240BB
:1016540008B5FFF7A9FFFEF747FEFFF7C5FF08BD72
:1016640008B54FF4704000F031F84FF41670FEF7EF
:1016740063FE4FF4304000F043F8F6E710B586B04F
:10168400044601220D4B1A7010F4704F04D118B99E
:101694000B481A21FFF72AFF0A4A136B43F0080389
:1016A40013630123029301940023039304930648D4
:1016B40001A9FEF7D7FE06B010BD00BF140100203B
:1016C400C021000800380240000C024010B5044656
:1016D40010F4704F04D118B906482721FFF706FF0C
:1016E400054B1B7823B1054821460122FFF726F854
:1016F40010BD00BFC021000814010020000C0240EE
:1017040010B5044610F4704F04D118B905483621B9
:10171400FFF7ECFE044B1B781BB104482146FFF78E
:1017240025F810BDC021000814010020000C02405F
:1017340010B50F4A136C43F0040313640D4C0E4BA5
:10174400236000222261A2604AF20F43636040F2E8
:10175400E733E3601E200421FEF71AFE1E20FEF785
:1017640059FE2046FFF714FE2046FFF773FC10BD18
:10177400003802406C0100200008004008B54FF416
:101784007040FFF77BFFFFF7D3FF08BD08B5FEF7F6
:10179400C5FDFEF763FE08BD08B50248FFF7B0FCBF
:1017A40008BD00BF6C01002008B5054B1B686FF035
:1017B40001021A614FF48040FFF7A2FF08BD00BF89
:1017C4006C010020014B1868704700BF70000020B6
:1017D400034613F8012B002AFBD1181A013870476D
:1017E40030B5141E9BB0054604DA8B2303604FF01A
:1017F400FF301CE04FF40272ADF80C2014BF04F16A
:10180400FF322246029205924FF6FF720091049134
:10181400ADF80E2069461A461E9B00F075F8431C6D
:10182400BCBF8B232B6014B1009B00221A701BB029
:1018340030BD000073B50093054B06460D461446B3
:10184400186831462A462346FFF7CAFF02B070BD26
:10185400700000202DE9F0478E68B34282460C46A2
:101864009046994640D38A8912F4906F3AD02568FD
:1018740009696F1A6569022305EB450595FBF3F5C4
:101884007B1C4B449D4238BF1D4653050FD529464A
:1018940000F03CFB064698B121693A4600F0CBFAC9
:1018A400A38923F4906343F08003A38113E02A46C1
:1018B40000F082FB064670B95046216900F0E2FA56
:1018C4000C23CAF80030A38943F04003A3814FF0EE
:1018D400FF30BDE8F087266165613E44ED1B26605C
:1018E400A5604E46B14500D24E4632462068414678
:1018F40000F0ACFAA3689B1BA36023681E44266017
:101904000020BDE8F08700002DE9F0439DB00646B5
:1019140003938B891C060D4690460CD50B6953B96D
:10192400402100F0F3FA2860286110B90C233360D9
:10193400CCE040236B610023099320238DF82930E8
:1019440030238DF82A3043461C4613F8012B1AB96C
:10195400B4EB08090FD002E0252AF5D1F8E73046A8
:10196400294642464B46FFF775FF013000F0A98037
:10197400099B4B4409932378002B00F0A280002399
:101984004FF0FF3204930793059206938DF853307A
:101994001A9304F101084446DFF848912178484637
:1019A400052200F039FA08F10108049B30B1C9EBB3
:1019B40000000122824013430493ECE7D80644BF9D
:1019C40020228DF85320190744BF2B228DF8532071
:1019D40022782A2A02D0079923460EE0039A111D81
:1019E40012680391002ABBBF524243F002030792DC
:1019F4000792B8BF049301340AE01C4601332278ED
:101A0400303A092A03D80A2000FB0121F5E707919F
:101A140023782E2B1AD163782A2B0AD1039B1A1D03
:101A24001B680392002BB8BF4FF0FF3302340593B9
:101A34000CE0611C00220C4601312378303B092B59
:101A440003D80A2000FB0232F5E70592DFF89880FC
:101A540021784046032200F0DFF938B1049AC8EB3C
:101A640000004023834013430493013421781A482F
:101A74008DF82810062204F1010800F0CDF988B190
:101A8400164B33B9039B073323F00703083303933F
:101A940013E003AB0093304604A92A46104BAFF37E
:101AA400008007E003AB0093304604A92A460C4BA0
:101AB40000F092F8421C074603D0099B3B4409936B
:101AC40041E7AB895B0601D4099801E04FF0FF3090
:101AD4001DB0BDE8F08300BFDC2100080000000059
:101AE40059180008D2210008D82100082DE9F8432C
:101AF40091461F468A680B69DDF820809342B8BF7F
:101B04001346C9F8003091F8432006460C4612B13A
:101B14000133C9F800302368990642BFD9F8003070
:101B24000233C9F80030256815F006051CD094F876
:101B340043302268003318BF012392061FD5E118F1
:101B44005A1C302081F84300224494F8451082F84E
:101B54004310023313E03046394604F119020123DD
:101B6400C047013007D00135E368D9F800209B1A3B
:101B74009D42F0DBDBE74FF0FF30BDE8F8833046F1
:101B8400394604F14302C0470130F4D02268D9F841
:101B94000050E36802F00602042A08BF5D1B2269B4
:101BA400A3680CBF25EAE57500259342C4BF9B1AC0
:101BB400ED184FF00009A9450ADA3046394604F118
:101BC4001A020123C0470130D5D009F10109F2E717
:101BD4000020BDE8F88300002DE9FF410C461746BC
:101BE400227E6E2A984606460A9B01F1430100F0C4
:101BF400AF8012D8632A23D00AD8002A00F0BC8010
:101C0400582A40F0CB8084F84520DFF804E257E0FE
:101C1400642A1ED0692A1CD0C0E0732A00F0B08068
:101C240009D86F2A2ED0702A40F0B880226842F07A
:101C3400200222603FE0752A24D0782A3BD0ADE010
:101C44001A68111D1960136884F8423004F14205C2
:101C5400A8E020681A6810F0800F02D0101D1860E8
:101C640008E010F0400F02F10400186002D0B2F94D
:101C7400003000E01368002B3EDA2D225B4284F82A
:101C8400432039E020681A6810F0800F02D0101D3C
:101C9400186007E010F0400F02F10400186001D052
:101CA400138800E01368227EDFF864E16F2A0CBF1A
:101CB40008220A221CE07822DFF858E184F8452043
:101CC4002268186812F0800F00F104051D6003D12A
:101CD400550601D5038800E00368D00744BF42F0ED
:101CE400200222601BB9226822F020022260102206
:101CF400002084F8430002E0DFF814E10A2265685A
:101D0400A560002DA2BF206820F00400206003B964
:101D140065B10D46B3FBF2F002FB10331EF803303D
:101D240005F8013D03460028F4D100E00D46082AD9
:101D34000BD12368DA0708D5236962689A42DEBFAB
:101D4400302305F8013C05F1FF35491B21612EE0E4
:101D540025681A68606915F0800F03D0151D1D6091
:101D6400136808E015F0400F02F104051D601368C4
:101D740001D0188000E01860002323610D4616E0AE
:101D84001A68111D1960156862682846002100F060
:101D940043F808B1401B6060636804E004F1420545
:101DA40084F8422001232361002384F84330CDF8D2
:101DB40000803046214603AA3B46FFF797FE0130D8
:101DC40002D14FF0FF301FE0304639462A462369DE
:101DD400C0470130F5D023689B0705D4E068039B16
:101DE4009842B8BF18460FE00025E368039A9B1A8F
:101DF4009D42F3DA3046394604F119020123C04703
:101E04000130DED00135F0E704B0BDE8F08100BF59
:101E1400E3210008F421000810B5C9B2024490423D
:101E2400034606D01C788C4200F10100F7D1184615
:101E340010BD002010BD10B5431E0A44914204D0C9
:101E440011F8014B03F8014FF8E710BD814210B5BA
:101E540001EB020301D3421E0BE09842FBD281182E
:101E6400D21AD34204D013F8014D01F8014DF8E71A
:101E740010BD994204D011F8014B02F8014FF8E764
:101E840010BD000030B500293DD051F8042C0B1FC3
:101E94001D49002AB8BF9B180A680C4612B95A603B
:101EA4000B6030BD93420DD219685818904201BF9F
:101EB4005A5852181A6042685A60236030BD9942D9
:101EC40003D80A4651680029F9D1146815199D42AE
:101ED4000AD11B682344D0188842136013D10868C0
:101EE400034413604B680DE002D90C23036030BD3A
:101EF4001C681819884204BF08684968596004BFFF
:101F040000191860536030BD0C01002070B5CC1C62
:101F140024F0030408340C2C38BF0C24002C06468F
:101F240003DA0C233360002070BD8C42F9D3204ABD
:101F3400136810461946A1B10A68121B0ED40B2A65
:101F440003D90A608B188C501FE08B420DBF5A686E
:101F54004A685A60026018BF0B4616E00B4649688F
:101F6400E9E7144D2B681BB9304600F04BF82860A4
:101F74003046214600F046F8421C0346D1D0C51C29
:101F840025F0030585420AD11C6003F10B001A1DDC
:101F940020F00700821A0AD05142995070BD304691
:101FA400E91A00F02FF80130BBD02B46ECE770BDE6
:101FB4000C01002008010020F8B5074615460E461E
:101FC40021B91146BDE8F840FFF7A0BF1AB9FFF7E1
:101FD40059FF2846F8BD00F025F8A8420ED238462D
:101FE4002946FFF793FF044650B131462A46FFF7CE
:101FF40022FF38463146FFF745FF01E03046F8BD81
:102004002046F8BD38B5064C002305460846236033
:10201400FFF742FA431C02D1236803B12B6038BD99
:102024001001002051F8040C0028BEBF091851F813
:10203400043CC018043870472E2E2F7379737465CE
:102044006D2F7372632F73746D333266342D686130
:102054006C2F73746D3332663478785F68616C5FAB
:10206400636F727465782E63000000002E2E2F7348
:10207400797374656D2F7372632F73746D33326665
:10208400342D68616C2F73746D3332663478785FE5
:1020940068616C5F6770696F2E6300000000000068
:1020A4000102030401020304060708092E2E2F73FC
:1020B400797374656D2F7372632F73746D33326625
:1020C400342D68616C2F73746D3332663478785FA5
:1020D40068616C5F7263632E630000002E2E2F73A1
:1020E400797374656D2F7372632F73746D333266F5
:1020F400342D68616C2F73746D3332663478785F75
:1021040068616C5F74696D2E6300000061626F72B8
:102114007428292C2065786974696E672E2E2E0028
:102124002C2066756E6374696F6E3A20000000009F
:10213400617373657274696F6E2022257322206641
:1021440061696C65643A2066696C65202225732296
:102154002C206C696E65202564257325730A0000A4
:102164006173736572745F706172616D2829206692
:1021740061696C65643A2066696C65202225732266
:102184002C206C696E652025640A00000A0000009A
:102194006D61696E28617267633D25642C206172EC
:1021A40067763D5B000000002C200000222573228E
:1021B400000000005D293B0A000000002E2E2F6263
:1021C40073702F6273702E63000000004300232D90
:1021D400302B2000686C4C0065666745464700302C
:1021E4003132333435363738394142434445460079
:1021F4003031323334353637383961626364656679
:0122040000D9
:102208007856341284000020000000000024F400F6
:1022180000000000000000000000000000000000B6
:1022280000000000000000000000000000000000A6
:10223800D02100080000000000000000000000009D
:102248000000000000000000000000000000000086
:102258000000000000000000000000000000000076
:102268000000000000000000000000000000000066
:0822780010000020325476989A
:040000050800018965
:00000001FF
