:020000040800F2
:1000000000000220950200089D020008A1020008DD
:10001000A5020008A9020008AD02000800000000C7
:10002000000000000000000000000000B102000815
:10003000B502000800000000B90200081113000812
:10004000C1020008C1020008C1020008C102000884
:10005000C1020008C1020008C1020008C102000874
:10006000C1020008C1020008C1020008C102000864
:10007000C1020008C1020008C1020008C102000854
:10008000C1020008C1020008C1020008C102000844
:10009000C1020008C1020008C1020008C102000834
:1000A000C1020008C1020008C1020008C102000824
:1000B000C1020008C1020008C1020008C102000814
:1000C000C1020008C1020008C1020008C102000804
:1000D000C1020008C1020008C1020008C1020008F4
:1000E000C1020008C1020008C1020008C1020008E4
:1000F000C1020008C1020008C1020008C1020008D4
:10010000C1020008C1020008C1020008C1020008C3
:10011000C1020008C1020008C1020008C1020008B3
:10012000C1020008C1020008C1020008C1020008A3
:10013000C1020008C1020008C1020008C102000893
:10014000C1020008C1020008C1020008C102000883
:10015000C1020008C1020008C1020008C102000873
:10016000C1020008C1020008C1020008C102000863
:10017000C1020008C1020008C1020008000000001E
:10018000C1020008C102000800B583B0304B314AFB
:100190001360314A1360314B3149002201E01A608B
:1001A00004338B42FBD32B4B1B6813B92A4B1B68C0
:1001B00003B1FEE7264B2B4A13602B4A13602B4BEF
:1001C0002B4A2C4803E0116819600433043283423F
:1001D000F9D3244B1A68284B9A4204D1224B1A684F
:1001E0001B689A4200D0FEE701F01AF801A86946A0
:1001F00000F062FF214B224EF61AB61000241D4675
:1002000003E055F8243098470134A642F9DC1D4B31
:100210001D4EF61AB61000241D4603E055F8243092
:1002200098470134A642F9DC0198009901F000F8E2
:100230000546164B164CE41AA4101E4603E0013C7A
:1002400056F824309847002CF9DC284600F006FFC9
:10025000BABADECA78000020180100207800002019
:100260001C0100200000002074000020000000207D
:10027000001D00087800002078563412C4020008DF
:10028000C4020008C4020008C4020008C402000836
:10029000C402000808B5FFF777FF00BFFEE700BF04
:1002A000FEE700BFFEE700BFFEE700BFFEE700BFBE
:1002B000FEE700BFFEE700BFFEE700BFFEE700BFAE
:0402C000FEE700BF96
:1002C40010B5044600F0ACFE064BA3FB00208009E9
:1002D40000F0A0F84FF0FF302146002200F058F85B
:1002E400002010BDD34D621008B50B4B1A6842F4C0
:1002F40000721A601A6842F480621A601A6842F442
:1003040080721A60032000F025F80F20FFF7D8FF51
:1003140000F0C4FF002008BD003C0240024B1A68F4
:1003240001321A60704700BF7C000020014B18683E
:10033400704700BF7C00002010B582B00190FFF729
:10034400F5FF0446FFF7F2FF001B019B9842F9D327
:1003540002B010BD10B50446C31E042B03D90A48CD
:10036400A42100F0AFFE04F00704084BD86820F481
:10037400E0600004000C40EA042040F0BF6040F458
:100384000030D86010BD00BF641B000800ED00E021
:1003940070B506460D4614460F2A03D91A48BC21E7
:1003A40000F090FE0F2D03D91748BD2100F08AFEFE
:1003B400164BDB68C3F30223C3F10701042928BFEA
:1003C40004211A1D062A01D9033B00E0002301225F
:1003D40002FA01F101390D409D4002FA03F3013B99
:1003E4001C402C43002E06DA06F00F062401E4B26A
:1003F400074B9C5570BD2401E4B206F1604000F542
:10040400614080F8004370BD641B000800ED00E00B
:1004140014ED00E00138B0F1807F0AD2064B586039
:10042400F021064A82F823100020986007221A60FF
:1004340070470120704700BF10E000E000ED00E0CD
:10044400704700BF08B5FFF7FBFF08BD2DE9F84F63
:1004540007460D460B881BB9AB48C32100F032FE9A
:100464006B68012B22D9112B20D0022B1ED0122B0A
:100474001CD0A64A934219D002F58012934215D09B
:1004840002F58012934211D0A2F5F81293420DD0D6
:1004940002F58012934209D002F58012934205D0EE
:1004A400032B03D09848C42100F00CFEAB68022B48
:1004B40003D99548C52100F005FE00241EE1A2469B
:1004C4000126A6402B6803EA0608B04540F01581D2
:1004D4006B68022B01D0122B4BD12B69C3B3092BB0
:1004E40036D0ABB3A3B39BB393B3012B30D02FD08F
:1004F400022B2DD02CD02BD0032B29D0042B27D08A
:1005040026D025D0052B23D022D0092B20D0062B92
:100514001ED0092B1CD0072B1AD019D018D0082BA9
:1005240016D015D014D0092B12D011D00A2B0FD00D
:100534000ED00B2B0CD00C2B0AD009D00D2B07D0CE
:100544000C2B05D00F2B03D06F48D62100F0BAFD39
:10055400E308083357F8231004F0070292000F2031
:10056400904021EA0000296901FA02F2024347F8A7
:1005740023203A684FEA44094FF0030B0BFA09FBB6
:100584006FEA0B0B0BEA02026B6803F0030303FA36
:1005940009F313433B606B685A1E012A03D9112BDC
:1005A40001D0122B19D1EB68032B03D95648E9214A
:1005B40000F088FDBA680BEA0202EB6803FA09F35B
:1005C4001343BB607B6823EA06066B68C3F300131E
:1005D40003FA0AFA4AEA06067E60FB680BEA030B92
:1005E400AB6803FA09F343EA0B03FB606B6813F08F
:1005F400805F00F08280464B5A6C42F480425A6419
:10060400A308991C434A52F8210004F00302920003
:100614000F21914020EA01013F48874237D000F57D
:100624008060874231D000F5806087422BD000F58E
:100634008060874225D000F5806087421FD000F596
:100644008060874219D000F58060874213D000F59E
:10065400806087420DD000F58060874207D000F5A6
:100664008060874201D1092012E00A2010E00820AE
:100674000EE007200CE006200AE0052008E0042034
:1006840006E0032004E0022002E0012000E0002054
:1006940000FA02F20A4302331E4941F823201F4B99
:1006A4001A686FEA080303EA0201686810F4803FDD
:1006B40001D048EA0201194A1160526803EA0201B2
:1006C400686810F4003F01D048EA0201134A5160FF
:1006D400926803EA0201686810F4801F01D048EAB6
:1006E40002010E4A9160D2681340696811F4001F38
:1006F40001D048EA0203094AD36001340F2C7FF683
:10070400DEAEBDE8F88F00BF981B00080000111092
:10071400003802400038014000000240003C014023
:1007240070B5054614460E4621B908484FF4D371F6
:1007340000F0C8FC012C04D9044840F2A71100F0D1
:10074400C1FC0CB12E8370BD6E8370BD981B000874
:1007540038B504460D4621B9044840F2BD1100F0F5
:10076400B1FC63695D40656138BD00BF981B00083A
:10077400F8B5044603680F2B03D9B148FD2100F0F6
:10078400A1FC236813F0010F61D06368012B06D923
:10079400052B04D0AA484FF4817100F093FCA94BB7
:1007A4009B6803F00C03042B0AD0A64B9B6803F050
:1007B4000C03082B0ED1A34B5B6813F4800F09D0F4
:1007C400A04B1B6813F4003F41D06368012B40F039
:1007D400FD813CE000229C4B1A70FFF7A7FD074601
:1007E400984D41F2883605E0FFF7A0FDC01BB042EA
:1007F40000F2EE812B6813F4003FF5D12279924B7D
:100804001A706368012B11D1FFF790FD07468D4DD7
:1008140041F2883605E0FFF789FDC01BB04200F2C3
:10082400D9812B6813F4003FF5D010E0FFF77EFD6B
:100834000746844D41F2883605E0FFF777FDC01B7B
:10084400B04200F2C9812B6813F4003FF5D123684C
:1008540013F0020F6CD0E368012B04D978484FF4ED
:10086400A17100F02FFC23691F2B04D9744840F2B6
:10087400431100F027FC734B9B6813F00C0F0AD054
:10088400704B9B6803F00C03082B1CD16D4B5B6809
:1008940013F4800F17D16B4B1B6813F0020F03D0B6
:1008A400E368012B40F09A81664B196821F0F80146
:1008B4002269F82090FAA0F0B0FA80F0C0B2824029
:1008C4000A431A6034E0E36803B301225F4B1A6001
:1008D400FFF72CFD06465B4D05E0FFF727FD801B67
:1008E400642800F27D812B6813F0020FF5D0554B7C
:1008F400196821F0F8012269F82090FAA0F0B0FA02
:1009040080F0C0B282400A431A6011E000224F4BCB
:100914001A60FFF70BFD06464A4D05E0FFF706FD9A
:10092400801B642800F25E812B6813F0020FF5D15E
:10093400236813F0080F2ED06369012B04D94048B3
:100944004FF4C17100F0BEFB636993B10122404BC7
:100954001A60FFF7EBFC06463A4D05E0FFF7E6FCAC
:10096400801B642800F240816B6F13F0020FF5D0F6
:1009740011E00022364B1A60FFF7D8FC0646314DD1
:1009840005E0FFF7D3FC801B642800F22F816B6F16
:1009940013F0020FF5D1236813F0040F6FD0A3688E
:1009A400012B06D9052B04D025484FF4D67100F04D
:1009B40089FB244B1A6C42F080521A64A3F5E43389
:1009C4001A6842F480721A60FFF7B0FC0646214DA3
:1009D40005E0FFF7ABFC801B642800F209812B685B
:1009E40013F4807FF5D000221B4B1A70FFF79EFC96
:1009F4000746144D41F2883605E0FFF797FCC01B0B
:100A0400B04200F2F7802B6F13F0020FF5D1227A77
:100A1400114B1A70A368012B20D1FFF787FC0746FE
:100A2400084D41F2883605E0FFF780FCC01BB04258
:100A340000F2E2802B6F13F0020FF5D01FE000BF2D
:100A4400D81B000800380240023802400000474228
:100A5400800E47420070004070380240FFF766FC89
:100A640007466C4D41F2883605E0FFF75FFCC01B7A
:100A7400B04200F2C3802B6F13F0020FF5D1A369CB
:100A8400022B04D964484FF4F87100F01BFBA369EE
:100A9400002B00F0B5805F4A926802F00C02082A2D
:100AA40000F0B080022B7ED1E3693BB1B3F5800F37
:100AB40004D0594840F2F91100F004FB236A3F2B9B
:100AC40004D955484FF4FD7100F0FCFA636AC03B49
:100AD400F02B04D9504840F2FB1100F0F3FAA36A5A
:100AE400022B0AD0042B08D0062B06D0082B04D0E6
:100AF40049484FF4FE7100F0E5FAE36A043B0B2B1E
:100B040004D9454840F2FD1100F0DCFA0022434BC1
:100B14001A60FFF70BFC06463E4D04E0FFF706FCA7
:100B2400801B642870D82B6813F0007FF6D1236AE9
:100B3400626A47F6C07191FAA1F1B1FA81F1C9B2C2
:100B44008A4043EA0201A36A5B085A1E4FF4403309
:100B540093FAA3F3B3FA83F3DBB29A400A43E3694B
:100B64001343E16A4FF0706292FAA2F2B2FA82F28F
:100B7400D2B201FA02F21A4342F00052254B5A60F3
:100B84000122264B1A60FFF7D1FB0546214C04E0F5
:100B9400FFF7CCFB401B642838D8236813F0007F90
:100BA400F6D00020F8BD00221C4B1A60FFF7BEFBF4
:100BB4000546184C04E0FFF7B9FB401B642827D80E
:100BC400236813F0007FF6D10020F8BD0120F8BDA2
:100BD4000320F8BD0320F8BD0320F8BD0120F8BDB3
:100BE4000320F8BD0320F8BD0320F8BD0320F8BDA1
:100BF4000320F8BD0320F8BD0320F8BD0320F8BD91
:100C04000020F8BD0120F8BD0320F8BD0320F8BD85
:100C14000320F8BD00380240D81B0008600047429A
:100C24002DE9F04104460D460368013B0E2B04D91F
:100C34008B484FF4187100F045FA072D04D9884801
:100C440040F2612100F03EFA864B1B6803F00F036B
:100C5400AB4280F08B80EAB2824B1A701B6803F0BF
:100C64000F03AB4240F05481236813F0020F1DD0F0
:100C7400A368A3B1802B12D0902B10D0A02B0ED040
:100C8400B02B0CD0C02B0AD0D02B08D0E02B06D030
:100C9400F02B04D0724840F2772100F013FA724B23
:100CA400996821F0F001A2680A439A60236813F05E
:100CB400010F00F0EA806368022B04D9684840F20F
:100CC4007E2100F0FFF96368012B05D1664A1268A2
:100CD40012F4003F0ED11EE1022B05D1624A1268C4
:100CE40012F0007F06D119E15F4A126812F0020F78
:100CF40000F017815C4A916821F003010B43936073
:100D0400FFF714FB05466368012B0FD105E0FFF7DD
:100D14000DFB401BB84203D906E1534E41F288371C
:100D2400B36803F00C03042BF1D1AEE0022B15D110
:100D340005E0FFF7FBFA401BB84203D9F7E04A4E3F
:100D440041F28837B36803F00C03082BF1D19CE01F
:100D5400FFF7ECFA401BB84203D9EBE0424E41F2F4
:100D64008837B36813F00C0FF2D18EE0236813F0C8
:100D7400020F1DD0A368A3B1802B12D0902B10D0EA
:100D8400A02B0ED0B02B0CD0C02B0AD0D02B08D067
:100D9400E02B06D0F02B04D0314840F2C62100F0FD
:100DA40091F9314B996821F0F001A2680A439A60E5
:100DB400236813F0010F60D06368022B04D928481C
:100DC40040F2CD2100F07EF96368012B05D1264A5B
:100DD400126812F4003F0ED1AFE0022B05D1224A73
:100DE400126812F0007F06D1AAE01F4A126812F0BE
:100DF400020F00F0A8801C4A916821F003010B4304
:100E04009360FFF793FA06466368012B0FD105E060
:100E1400FFF78CFA801B404503D997E0124F41F24B
:100E24008838BB6803F00C03042BF1D125E0022BB6
:100E34001CD105E0FFF77AFA801B404503D988E00E
:100E4400094F41F28838BB6803F00C03082BF1D139
:100E540013E0FFF76BFA801B40450AD97CE000BF22
:100E6400D81B0008003C0240003802403D4F41F2CC
:100E74008838BB6813F00C0FEBD1EAB23A4B1A7006
:100E84001B6803F00F03AB4269D1236813F0040F0E
:100E940019D0E36883B1B3F5805F0DD0B3F5A05FDB
:100EA4000AD0B3F5C05F07D0B3F5E05F04D02F4894
:100EB40040F21D3100F006F92A4B996821F4E05103
:100EC400E2680A439A60236813F0080F1AD0236972
:100ED40083B1B3F5805F0DD0B3F5A05F0AD0B3F54D
:100EE400C05F07D0B3F5E05F04D020484FF44971E8
:100EF40000F0E8F81B4B9A6822F46042216942EA48
:100F0400C1029A600F20FFF7DBF90020BDE8F081F1
:100F14000120BDE8F0810120BDE8F0810120BDE899
:100F2400F0810120BDE8F0810320BDE8F0810320B9
:100F3400BDE8F0810320BDE8F0810120BDE8F08127
:100F44000120BDE8F0810120BDE8F0810320BDE867
:100F5400F0810320BDE8F0810320BDE8F081012089
:100F6400BDE8F08100380240003C0240D81B000874
:100F7400284B9B6803F00C03042B49D0082B01D0A9
:100F840025487047234B586800F03F005A6802F424
:100F940080024FF4800393FAA3F3B3FA83F3DBB232
:100FA40032FA03F311D01D4BB3FBF0F0194B5A681E
:100FB40047F6C0731A4093FAA3F3B3FA83F3DBB290
:100FC40022FA03F303FB00F010E0134BB3FBF0F041
:100FD400104B5A6847F6C0731A4093FAA3F3B3FA56
:100FE40083F3DBB222FA03F303FB00F0094B5A68E4
:100FF40002F440324FF4403393FAA3F3B3FA83F389
:10100400DBB222FA03F301335B00B0FBF3F0704769
:1010140002487047003802400024F40000127A00AD
:1010240008B5FFF7A5FF094B9A6802F0F002F02318
:1010340093FAA3F3B3FA83F3DBB222FA03F3044A79
:10104400D35CD840034B186008BD00BF0038024091
:10105400C81B00080C000020FEE700BF08B50348C9
:1010640000F056F80120FFF7F7FF00BF081C000846
:1010740008B50D4B1B6813B90C4A0B4B1A600A4B8D
:101084001B68033020F003001844094A904206D933
:1010940000F042F90C2303604FF0FF3008BD024A10
:1010A4001060184608BD00BF800000201C0100200D
:1010B40000FC012001230360014B0B60704700BF5B
:1010C4000400002008B503460A460348194600F008
:1010D40005F8FFF7C3FF00BF5C1C00080FB400B5A0
:1010E40083B004AB53F8042B01930848802100F02B
:1010F4004BF9011E03DD054800F038F801460846A7
:1011040003B05DF804EB04B0704700BF8800002012
:1011140010B5044600F006F90146204600F026F812
:101124000248012100F022F810BD00BF881C00080D
:1011340010B400244FF0604212E0D2F8803E13F065
:10114400010F04D0D2F8003E13F0010F01D1204664
:1011540009E01368002BFCD00378137001340130CC
:101164008C42EAD308465DF8044B704708B5FFF794
:10117400DFFF08BD0C4B1A6842F001021A6000211F
:1011840099601A6822F0847222F480321A60074A45
:101194005A601A6822F480221A60D9604FF0006203
:1011A400034B9A60704700BF00380240103000249F
:1011B40000ED00E010B592B0174B1A6C42F080526B
:1011C4001A64A3F5E4331A6842F440421A60012316
:1011D40001930293022407944FF480030893082395
:1011E40009934FF4A8730A930B9407230C9301A853
:1011F400FFF7BEFA0F230D930E9400230F934FF4C1
:10120400A05310934FF4805311930DA80521FFF7B9
:1012140007FD12B010BD00BF0038024008B5FFF74B
:10122400A9FFFFF761F8FFF7C5FF08BD08B54FF444
:10123400704000F039F84FF4FA754FF41044284622
:10124400FFF77AF8204600F049F8F8E710B586B0C1
:10125400044601220D4B1A7010F4704F04D118B9D2
:101264000B481521FFF72EFF0A4B1A6B42F00802B8
:101274001A63012302930194002303930493064801
:1012840001A9FFF7E3F806B010BD00BF1401002068
:10129400B81C000800380240000C024008B54FF4A6
:1012A4007040FFF7D3FF08BD10B5044610F4704F2B
:1012B40004D118B906482221FFF704FF054B1B7817
:1012C40023B1054821460122FFF72AFA10BD00BFC9
:1012D400B81C000814010020000C024010B504469C
:1012E40010F4704F04D118B905483121FFF7EAFE14
:1012F400044B1B781BB104482146FFF729FA10BDA3
:10130400B81C000814010020000C024008B5FFF7C7
:1013140005F8FFF797F808BD014B1868704700BF40
:1013240070000020034613F8012B002AFBD1181A81
:101334000138704730B5141E9BB0054604DA8B2380
:1013440003604FF0FF301CE04FF4027200910491EF
:10135400ADF80C2014BF04F1FF3121464FF6FF72A3
:1013640002910591ADF80E2069461A461E9B00F0C5
:1013740077F8431CBCBF8B232B6014B1009B002265
:101384001A701BB030BD000073B50093054B0646C0
:101394000D461446186831462A462346FFF7CAFF0D
:1013A40002B070BD700000202DE9F0478D68AB429B
:1013B40081460C4692461F4643D38B8913F4906FA3
:1013C4003DD026680969C1EB06086669022206EB6E
:1013D400460696FBF2F608F101023A44964238BFFB
:1013E40016465B050FD5314600F026FB054698B13D
:1013F4002169424600F0B7FAA38923F4906343F0CD
:101404008003A38113E0324600F06AFB054670B9FD
:101414004846216900F0CCFA0C23C9F80030A389AE
:1014240043F04003A3814FF0FF30BDE8F08725610E
:1014340066614544C8EB06062560A6603D46AF429A
:1014440000D23D462A462068514600F095FAA3682A
:101454005B1BA36023681D4425600020BDE8F08762
:101464002DE9F0439DB0074603938B891C060D4676
:1014740016460CD50B6953B9402100F0DDFA2860FB
:10148400286110B90C233B60C8E040236B61002342
:10149400099320238DF8293030238DF82A303346E0
:1014A4001C4613F8012B1AB9B4EB06090FD002E05D
:1014B400252AF5D1F8E73846294632464B46FFF748
:1014C40073FF013000F0A580099B4B4409932378F6
:1014D400002B00F09E8000234FF0FF32049307930B
:1014E400059206938DF853301A9304F101094C4682
:1014F4004D4E21783046052200F026FA09F1010903
:10150400049B28B1861B0120B04003430493EEE7FB
:10151400D90644BF20228DF853201A0744BF2B223A
:101524008DF8532022782A2A02D0079B21460EE008
:10153400039A111D12680391002A01DB079204E04B
:10154400524243F002030792049301340AE00C462A
:1015540001312278303A092A03D80A2000FB0323F8
:10156400F5E7079323782E2B1AD163782A2B0AD117
:10157400039B1A1D1B680392002B04F10204B8BFDD
:101584004FF0FF330BE0611C00230C46013122783D
:10159400303A092A03D80A2000FB0323F5E7059310
:1015A400224E21783046032200F0CEF930B1861B5A
:1015B400049B4020B04003430493013421781C4829
:1015C4008DF828100622661C00F0BEF988B1194B6C
:1015D40033B9039B073323F007030833039314E061
:1015E40003AB0093384604A92A46134BAFF300809B
:1015F40007E003AB0093384604A92A460E4B00F0DB
:101604008FF8B0F1FF3F804603D0099B4344099310
:1016140045E7AB895B0601D4099801E04FF0FF3040
:101624001DB0BDE8F08300BFCA1C0008D01C000830
:10163400D41C000800000000AD1300082DE9F84395
:1016440015461F468A680B69DDF820809A42A8BFB8
:1016540013462B6091F8432006460C460AB1013329
:101664002B602368990602D52B6802332B6023680C
:1016740013F006091DD094F843302268003318BFD4
:10168400012392061FD5E1185A1C302081F843002B
:10169400224494F8451082F84310023313E0304694
:1016A400394604F119020123C047013007D009F17A
:1016B4000109E2682B68D31A9945F0DBDBE74FF0A8
:1016C400FF30BDE8F8833046394604F14302C04791
:1016D4000130F4D023682A68E16803F00603042B80
:1016E40008BFC2EB01052369A2680CBF25EAE575B2
:1016F40000259A42C4BFC3EB0203ED184FF0000962
:10170400A9450ADA3046394604F11A020123C047D2
:101714000130D4D009F10109F2E70020BDE8F883D3
:101724002DE9FF470E7E0C9D6E2E80460C46914699
:101734009A4601F1430000F0A58011D8632E22D00F
:1017440009D8002E00F0AF80582E40F0BF8081F8F9
:1017540045607B4A4FE0642E1ED0692E1CD0B5E054
:10176400732E00F0A48009D86F2E2BD0702E40F079
:10177400AD800B6843F020030B6038E0752E21D058
:10178400782E34D0A2E02B681A1D1B682A6001F160
:10179400420781F842309DE022682B6812F0800FE6
:1017A40003D01A1D2A601D6805E05106F9D51A1DDB
:1017B4002A60B3F90050002D39DA2D236D4284F8E4
:1017C400433034E022682B6812F0800F03D01A1DD6
:1017D4002A601D6804E05206F9D51A1D2A601D8886
:1017E400237E574A6F2B14BF0A2308231BE0782358
:1017F400544A84F845302368296813F0800F01F1B6
:1018040004062E6001D00D6802E05F06FBD50D884A
:10181400DE0744BF43F0200323601DB9236823F08F
:10182400200323601023002184F8431001E0444A7C
:101834000A236668A660002E03DB216821F00401F8
:10184400216005B96EB104F14201B5FBF3F603FB67
:1018540016550F46555D01F801593546002EF4D151
:1018640000E00746082B0AD12368DD0707D5626824
:1018740023699A4203DC302307F8013C013FC01B73
:1018840020612CE009682B68626911F0800F04D094
:10189400191D29601B681A6005E04906F8D5191D51
:1018A40029601B681A8000232361074617E02B6810
:1018B4001A1D2A601F683846FFF734FD63682061EB
:1018C400984288BF23612369636005E004F14207FD
:1018D40084F8426001232361002384F84330CDF867
:1018E40000A04046214603AA4B46FFF7A7FE01305D
:1018F40002D14FF0FF301FE0404649463A46236983
:10190400D0470130F5D023689B0705D4E068039BDA
:101914009842B8BF18460FE00025E268039BD31A2B
:101924009D42F3DA4046494604F119020123D047A7
:101934000130DED00135F0E704B0BDE8F08700BF28
:10194400DB1C0008EC1C000810B5C9B2024490422C
:10195400034606D01C788C4200F10100F7D11846EA
:1019640010BD002010BD10B50023934203D0CC5C01
:10197400C4540133F9E710BD814270B501D300238B
:101984000EE08C18A042FAD28518134613F1FF33E7
:1019940005D3514266182944F65CCE54F6E770BD6F
:1019A400934203D0CC5CC4540133F9E770BD00000A
:1019B40030B500293CD051F8042C0B1F1D49002AD6
:1019C400B8BF9B180A680C4612B95A600B6030BD48
:1019D40093420DD219685818904203D15A581144B1
:1019E400426819605A60236030BD994203D80A46A0
:1019F40051680029F9D1146815199D420AD11B6850
:101A04002344D0188842136012D108680344136039
:101A14004B680CE002D90C23036030BD18681C1815
:101A24008C4203D10C6849682044186059605360A3
:101A340030BD00BF0C01002070B5CD1C25F003059E
:101A440008350C2D38BF0C25002D06463FDB8D4292
:101A54003DD3214B1C6818462146A1B10B685B1B82
:101A64000ED40B2B03D90B60CC18CD501FE08C4245
:101A740002D1626802601AE04B6863600C4616E0AB
:101A84000C464968E9E7154C23681BB9304600F059
:101A94004DF820602946304600F048F8431C0146C2
:101AA40015D0C41C24F0030484420AD1256004F137
:101AB4000B00231D20F00700C31A0BD05A42E2503A
:101AC40070BD3046611A00F031F80130EED10C23BC
:101AD4003360002070BD00BF0C010020080100200D
:101AE400F8B5064614460D4621B91146BDE8F8403E
:101AF400FFF7A2BF1AB9FFF75BFF2046F8BD00F05D
:101B040025F8A0420ED230462146FFF795FF07463E
:101B140050B129462246FFF726FF30462946FFF7F3
:101B240047FF01E02846F8BD3846F8BD38B5064CF5
:101B34000023054608462360FFF79AFA431C02D1A6
:101B4400236803B12B6038BD1001002051F8040C48
:101B5400002802DA04390B5818440438704700008E
:101B64002E2E2F73797374656D2F7372632F7374B4
:101B74006D333266342D68616C2F73746D33326645
:101B84003478785F68616C5F636F727465782E6314
:101B9400000000002E2E2F73797374656D2F7372FD
:101BA400632F73746D333266342D68616C2F7374D4
:101BB4006D3332663478785F68616C5F6770696F23
:101BC4002E6300000000000001020304010203046C
:101BD400060708092E2E2F73797374656D2F73729F
:101BE400632F73746D333266342D68616C2F737494
:101BF4006D3332663478785F68616C5F7263632E2C
:101C04006300000061626F727428292C2065786972
:101C140074696E672E2E2E002C2066756E637469AF
:101C24006F6E3A2000000000617373657274696F0F
:101C34006E2022257322206661696C65643A2066F1
:101C4400696C6520222573222C206C696E65202521
:101C540064257325730A00006173736572745F7081
:101C64006172616D2829206661696C65643A206639
:101C7400696C6520222573222C206C696E652025F1
:101C8400640A00000A0000006D61696E28617267D1
:101C9400633D25642C20617267763D5B0000000083
:101CA4002C20000022257322000000005D293B0A3D
:101CB400000000002E2E2F6273702F6273702E634B
:101CC400000000004300232D302B2000686C4C00E2
:101CD4006566674546470030313233343536373828
:101CE4003941424344454600303132333435363786
:091CF40038396162636465660021
:101D00007856341284000020000000000024F40003
:101D100000000000000000000000000000000000C3
:101D200000000000000000000000000000000000B3
:101D3000C81C0008000000000000000000000000B7
:101D40000000000000000000000000000000000093
:101D50000000000000000000000000000000000083
:101D60000000000000000000000000000000000073
:081D70001000002032547698A7
:040000050800018965
:00000001FF
