:020000040800F2
:1000000000000220950200089D020008A1020008DD
:10001000A5020008A9020008AD02000800000000C7
:10002000000000000000000000000000B102000815
:10003000B502000800000000B902000839270008D6
:10004000C1020008C1020008C1020008C102000884
:10005000C1020008C102000875270008C10200089B
:10006000C1020008C1020008C1020008C102000864
:10007000C1020008C1020008C1020008C102000854
:10008000C1020008C1020008C1020008C102000844
:10009000C1020008C1020008C1020008C102000834
:1000A000C1020008C1020008C1020008C102000824
:1000B000C1020008C102000845270008C10200086B
:1000C000C1020008C1020008C1020008C102000804
:1000D00055270008C1020008C1020008C10200083B
:1000E000C1020008C1020008C1020008C1020008E4
:1000F000C1020008C1020008C1020008C1020008D4
:10010000C1020008C1020008C1020008C1020008C3
:10011000C1020008C1020008C1020008C1020008B3
:10012000C1020008C1020008C1020008C1020008A3
:10013000C1020008C1020008C1020008C102000893
:10014000C1020008C1020008C1020008C102000883
:10015000C1020008C1020008C1020008C102000873
:10016000C1020008C1020008C1020008C102000863
:10017000C1020008C1020008C1020008000000001E
:10018000C1020008C1020008314B324A1360324AF2
:100190001360324B02E000221A600433304A93426B
:1001A000F9D32C4B1B6813B92B4B1B6803B1FEE72B
:1001B000274B2C4A13602C4A13602C4B2C4A03E02B
:1001C00011681960043304322A498B42F8D3254B55
:1001D0001A68294B9A4204D1234B1A681B689A4229
:1001E00000D0FEE700B583B002F082F901A86946AD
:1001F00002F0C4F8214C224B1C1BA410002504E083
:100200001E4B53F8253098470135AC42F8DC1D4CA5
:100210001D4B1C1BA410002504E01A4B53F825307D
:1002200098470135AC42F8DC0198009902F068F972
:100230000546164C164B1C1BA41004E0013C134B46
:1002400053F824309847002CF8DC284602F068F870
:10025000BABADECA78000020D0050020780000205D
:10026000D4050020000000207400002000000020C1
:10027000783200087800002078563412C402000852
:10028000C4020008C4020008C4020008C402000836
:10029000C402000808B5FFF777FF00BFFEE700BF04
:1002A000FEE700BFFEE700BFFEE700BFFEE700BFBE
:1002B000FEE700BFFEE700BFFEE700BFFEE700BFAE
:0402C000FEE700BF96
:1002C40010B5044600F0B4FE064BA3FB00308009D1
:1002D40000F0ACF84FF0FF302146002200F058F84F
:1002E400002010BDD34D621008B50B4B1A6842F4C0
:1002F40000721A601A6842F480621A601A6842F442
:1003040080721A60032000F025F80F20FFF7D8FF51
:1003140002F002FA002008BD003C0240024A1368C1
:1003240001331360704700BF7C000020014B186844
:10033400704700BF7C00002010B582B00190FFF729
:10034400F5FF0446FFF7F2FF001B019B9842F9D327
:1003540002B010BD10B50446C31E042B03D90A48CD
:10036400A42102F011F804F00700084AD36823F42A
:10037400E0631B041B0C43EA002040F0BF6040F420
:100384000030D06010BD00BF7C30000800ED00E0FC
:1003940070B504460E4615460F2A03D91A48BC21E7
:1003A40001F0F2FF0F2E03D91748BD2101F0ECFF35
:1003B400164BDB68C3F30223C3F10702042A28BFE8
:1003C4000422191D062901D9D81E00E000200123AA
:1003D40003FA02F2013A324002FA00F183405A1E53
:1003E4002A400A43002C06DA04F00F041201D2B2A8
:1003F400074B1A5570BD1201D2B204F1604404F5E2
:10040400614484F8002370BD7C30000800ED00E0F6
:1004140014ED00E0410900F01F0001238340024A6B
:1004240042F82130704700BF00E100E00138B0F12C
:10043400807F0AD2064B5860F021064A82F82310C6
:100444000020986007221A6070470120704700BF9F
:1004540010E000E000ED00E0704700BF08B5FFF7D2
:10046400FBFF08BD2DE9F84F80460F460B881BB9EA
:10047400AC48C32101F088FF7B68012B22D9112BE2
:1004840020D0022B1ED0122B1CD0A74A934219D085
:1004940002F58012934215D002F58012934211D0D6
:1004A400A2F5F81293420DD002F58012934209D0BE
:1004B40002F58012934205D0032B03D09948C4213E
:1004C40001F062FFBB68022B03D99648C52101F0F5
:1004D4005BFF002420E1A1460125A5403B6803EA17
:1004E400050AAA4540F017817B68022B01D0122B24
:1004F4004AD13B69C3B3092B36D0ABB3A3B39BB387
:1005040093B3012B30D02FD0022B2DD02CD02BD055
:10051400032B29D0042B27D026D025D0052B23D07C
:1005240022D0092B20D0062B1ED0092B1CD0072B40
:100534001AD019D018D0082B16D015D014D0092BE6
:1005440012D011D00A2B0FD00ED00B2B0CD00C2BA9
:100554000AD009D00D2B07D00C2B05D00F2B03D0BC
:100564007048D62101F010FFE608083658F8261026
:1005740004F0070080000F23834021EA03023B6953
:100584008340134348F82630D8F800304FEA440B30
:10059400032606FA0BF6F64306EA03027B6803F029
:1005A400030303FA0BF31343C8F800307B685A1EA5
:1005B400012A03D9112B01D0122B1CD1FB68032B68
:1005C40003D95848E92101F0DFFED8F8083006EADB
:1005D4000302FB6803FA0BF31343C8F80830D8F896
:1005E400043023EA05037D68C5F3001505FA09F50F
:1005F4001D43C8F80450D8F80C303340BE6806FADE
:100604000BF61E43C8F80C607B6813F0805F00F0A3
:100614008280464A536C43F480435364A308991C74
:10062400A2F5803252F8211004F0030080000F225A
:10063400824021EA02013E4A904537D002F58062A9
:10064400904531D002F5806290452BD002F580624E
:10065400904525D002F5806290451FD002F5806256
:10066400904519D002F58062904513D002F580625E
:1006740090450DD002F58062904507D002F5806266
:10068400904501D1092212E00A2210E008220EE06E
:1006940007220CE006220AE0052208E0042206E014
:1006A400032204E0022202E0012200E00022824050
:1006B4000A4302331F4941F823201F4B1A686FEA8B
:1006C4000A0303EA0201786810F4803F01D04AEA81
:1006D4000201194A1160526803EA0201786810F4B1
:1006E400003F01D04AEA0201134A5160926803EACA
:1006F4000201786810F4801F01D04AEA02010E4A10
:100704009160D2681340796811F4001F01D04AEA5D
:100714000203094AD36001340F2C7FF6DCAEBDE836
:10072400F88F00BFB03000080000111000380240FC
:100734000000024000380140003C014070B505460D
:1007440014460E4621B908484FF4D37101F01CFE3B
:10075400012C04D9044840F2A71101F015FE0CB194
:100764002E8370BD6E8370BDB030000838B5054669
:100774000C4621B9044840F2BD1101F005FE6B6935
:100784005C406C6138BD00BFB030000808B5044B54
:100794005B69034203D0024B586102F017F808BDAD
:1007A400003C014038B5044603680F2B03D9B34815
:1007B400FD2101F0E9FD236813F0010F61D06368A6
:1007C400012B06D9052B04D0AC484FF4817101F0FC
:1007D400DBFDAB4B9B6803F00C03042B0AD0A84B46
:1007E4009B6803F00C03082B0ED1A54B5B6813F434
:1007F400800F09D0A24B1B6813F4003F41D06368FB
:10080400012B40F0FE813CE000229E4B1A70FFF762
:100814008DFD054607E0FFF789FD401B41F2883353
:10082400984200F2F081964B1B6813F4003FF2D11A
:100834002279944B1A706368012B11D1FFF776FD6E
:10084400054607E0FFF772FD401B41F288339842EA
:1008540000F2DB818A4B1B6813F4003FF2D010E0F6
:10086400FFF764FD054607E0FFF760FD401B41F21A
:100874008833984200F2CB81814B1B6813F4003F0C
:10088400F2D1236813F0020F6DD0E368012B04D971
:100894007A484FF4A17101F077FD23691F2B04D925
:1008A400764840F2431101F06FFD754B9B6813F0DD
:1008B4000C0F0AD0724B9B6803F00C03082B1CD15D
:1008C4006F4B5B6813F4800F17D16D4B1B6813F0EB
:1008D400020F03D0E368012B40F09B816848026853
:1008E40022F0F8012269F82393FAA3F3B3FA83F30D
:1008F400DBB29A400A43026035E0E3680BB301229D
:10090400614B1A60FFF712FD054605E0FFF70EFD87
:10091400401B642800F27F81594B1B6813F0020FBF
:10092400F4D05748036823F0F8012269F82393FAB6
:10093400A3F3B3FA83F3DBB29A4041EA0203036000
:1009440011E00022504B1A60FFF7F0FC054605E069
:10095400FFF7ECFC401B642800F25F81484B1B68E6
:1009640013F0020FF4D1236813F0080F2ED063693B
:10097400012B04D941484FF4C17101F005FD6369AD
:1009840093B10122414B1A60FFF7D0FC054605E004
:10099400FFF7CCFC401B642800F24181384B5B6FAD
:1009A40013F0020FF4D011E00022384B1A60FFF765
:1009B400BDFC054605E0FFF7B9FC401B642800F2C6
:1009C40030812F4B5B6F13F0020FF4D1236813F0C7
:1009D400040F6ED0A368012B06D9052B04D0274839
:1009E4004FF4D67101F0D0FC254A136C43F08053C8
:1009F4001364A2F5E432136843F480731360FFF7C1
:100A040095FC054605E0FFF791FC401B642800F2C5
:100A14000A811F4B1B6813F4807FF4D000221D4B06
:100A24001A70FFF783FC054607E0FFF77FFC401BC5
:100A340041F28833984200F2F880114B1B6F13F097
:100A4400020FF2D1227A134B1A70A368012B11D131
:100A5400FFF76CFC054607E0FFF768FC401B41F21A
:100A64008833984200F2E380054B1B6F13F0020FAA
:100A7400F2D01EE0FFF75AFC054615E0F0300008FE
:100A8400003802400238024000004742800E4742CC
:100A94000070004070380240FFF748FC401B41F2F0
:100AA4008833984200F2C580684B1B6F13F0020F25
:100AB400F2D1A369022B04D965484FF4F87101F00F
:100AC40063FCA369002B00F0B680604A926802F0D0
:100AD4000C02082A00F0B180022B7FD1E3693BB1FC
:100AE400B3F5800F04D05A4840F2F91101F04CFCE0
:100AF400236A3F2B04D956484FF4FD7101F044FC9E
:100B0400636AC03BF02B04D9514840F2FB1101F059
:100B14003BFCA36A022B0AD0042B08D0062B06D078
:100B2400082B04D04A484FF4FE7101F02DFCE36A0F
:100B3400043B0B2B04D9464840F2FD1101F024FC80
:100B44000022444B1A60FFF7F1FB054604E0FFF76F
:100B5400EDFB401B642872D83C4B1B6813F0007FEC
:100B6400F5D1216A626A47F6C07393FAA3F3B3FA24
:100B740083F3DBB29A401143A36A5B08013B4FF451
:100B8400403292FAA2F2B2FA82F2D2B293400B430A
:100B9400E26943EA0201E36A4FF0706292FAA2F258
:100BA400B2FA82F2D2B203FA02F241EA020343F049
:100BB4000053264A53600122264B1A60FFF7B6FB06
:100BC400044604E0FFF7B2FB001B642839D81F4B2E
:100BD4001B6813F0007FF5D0002038BD00221D4BA8
:100BE4001A60FFF7A3FB044604E0FFF79FFB001B1A
:100BF400642828D8154B1B6813F0007FF5D100201A
:100C040038BD012038BD032038BD032038BD032082
:100C140038BD012038BD032038BD032038BD032072
:100C240038BD032038BD032038BD032038BD032060
:100C340038BD032038BD002038BD012038BD032055
:100C440038BD032038BD032038BD00BF0038024042
:100C5400F03000086000474270B504460D46036852
:100C6400013B0E2B04D988484FF4187101F08CFB1A
:100C7400072D04D9844840F2612101F085FB834BA0
:100C84001B6803F00F03AB4280F08B80EAB27F4B0A
:100C94001A701B6803F00F03AB4240F051812368C4
:100CA40013F0020F1DD0A368A3B1802B12D0902B98
:100CB40010D0A02B0ED0B02B0CD0C02B0AD0D02B30
:100CC40008D0E02B06D0F02B04D06F4840F27721F7
:100CD40001F05AFB6E498B6823F0F002A3681343BA
:100CE4008B60236813F0010F00F0E8806368022B27
:100CF40004D9654840F27E2101F046FB6268012A6E
:100D040005D1634B1B6813F4003F0ED11AE1022A8C
:100D140005D15F4B1B6813F0007F06D114E15C4BD7
:100D24001B6813F0020F00F0118159498B6823F0FE
:100D3400030313438B60FFF7F9FA05466368012B3D
:100D44000FD107E0FFF7F2FA401B41F288339842D3
:100D540000F2FE804E4B9B6803F00C03042BF1D190
:100D6400ACE0022B17D107E0FFF7E0FA401B41F299
:100D74008833984200F2EE80454B9B6803F00C03E5
:100D8400082BF1D19AE0FFF7D1FA401B41F28833E6
:100D9400984200F2E1803E4B9B6813F00C0FF2D1B5
:100DA4008CE0236813F0020F1DD0A368A3B1802B3D
:100DB40012D0902B10D0A02B0ED0B02B0CD0C02B67
:100DC4000AD0D02B08D0E02B06D0F02B04D02E482C
:100DD40040F2C62101F0D8FA2D498B6823F0F002C5
:100DE400A36813438B60236813F0010F5ED063681C
:100DF400022B04D9244840F2CD2101F0C5FA6268DF
:100E0400012A05D1224B1B6813F4003F0ED1A5E043
:100E1400022A05D11E4B1B6813F0007F06D19FE008
:100E24001B4B1B6813F0020F00F09C8018498B6861
:100E340023F0030313438B60FFF778FA06466368D5
:100E4400012B0FD107E0FFF771FA801B41F28833C1
:100E5400984200F289800E4B9B6803F00C03042B2C
:100E6400F1D123E0022B1CD106E0FFF75FFA801BCF
:100E740041F28833984279D8054B9B6803F00C0300
:100E8400082BF2D112E000BFF0300008003C024011
:100E940000380240FFF74AFA801B41F28833984237
:100EA40066D8354B9B6813F00C0FF3D1EAB2334B81
:100EB4001A701B6803F00F03AB425BD1236813F075
:100EC400040F19D0E36883B1B3F5805F0DD0B3F597
:100ED400A05F0AD0B3F5C05F07D0B3F5E05F04D0DC
:100EE400274840F21D3101F04FFA23498B6823F45F
:100EF400E052E36813438B60236813F0080F1AD0A1
:100F0400236983B1B3F5805F0DD0B3F5A05F0AD038
:100F1400B3F5C05F07D0B3F5E05F04D018484FF4D1
:100F2400497101F031FA144A936823F4604321694A
:100F340043EAC10393600F20FFF7C2F9002070BD9C
:100F4400012070BD012070BD012070BD012070BD65
:100F5400032070BD032070BD032070BD012070BD4F
:100F6400012070BD012070BD032070BD032070BD41
:100F7400032070BD012070BD00380240003C0240D7
:100F8400F0300008274B9B6803F00C03042B46D079
:100F9400082B01D024487047224B586800F03F00CA
:100FA400596801F480014FF4800292FAA2F2B2FA75
:100FB40082F2D2B231FA02F310D01C4BB3FBF0F33D
:100FC400184A506847F6C072104092FAA2F2B2FA78
:100FD40082F2D2B2D04000FB03F30FE0124BB3FB1A
:100FE400F0F3104A506847F6C072104092FAA2F229
:100FF400B2FA82F2D2B2D04000FB03F3094A50683D
:1010040000F440304FF4403292FAA2F2B2FA82F283
:10101400D2B2D04001304000B3FBF0F07047034837
:10102400704700BF003802400024F40000127A0028
:1010340008B5FFF7A7FF094B9B6803F0F002F02304
:1010440093FAA3F3B3FA83F3DBB222FA03F3044A69
:10105400D35CD840034B186008BD00BF0038024081
:10106400E03000080C0000202DE9F04106460C4653
:1010740090461D46FFF75AF90746B8F1000F2AD0EB
:101084005BE0B5F1FF3F26D025B1FFF74FF9C01B58
:10109400A84220D93268536823F0E00353603268D1
:1010A400136823F040031360B36AB3F5005F09D1FA
:1010B4003268136823F4005313603268136843F4EE
:1010C40000531360012386F85130002386F8503012
:1010D4000320BDE8F08133689B682340A342D0D14C
:1010E4000020BDE8F081B5F1FF3F26D025B1FFF720
:1010F4001DF9C01BA84220D93268536823F0E003CD
:1011040053603268136823F040031360B36AB3F585
:10111400005F09D13268136823F400531360326806
:10112400136843F400531360012386F851300023FD
:1011340086F850300320BDE8F08133689B68234073
:10114400A342D0D00020BDE8F08100BF704700BFAB
:10115400002800F0AD8010B50446436833B1B3F500
:10116400827F03D05348B22101F00EF9A3684BB13A
:10117400B3F5806F06D0B3F5004F03D04D48B321CB
:1011840001F002F9E368B3F5006F04D01BB14948DC
:10119400B42101F0F9F823692BB1022B03D045489F
:1011A400B52101F0F1F86369012B03D94148B62157
:1011B40001F0EAF8A369B3F5007F07D033B1B3F5C2
:1011C400802F03D03B48B72101F0DEF8E3698BB1EF
:1011D400082B0FD0102B0DD0182B0BD0202B09D09F
:1011E400282B07D0302B05D0382B03D03148B82119
:1011F40001F0CAF8236A2BB1802B03D02D48B92102
:1012040001F0C2F8636A2BB1102B03D02948BA212C
:1012140001F0BAF8A36A33B1B3F5005F03D02548EF
:10122400BB2101F0B1F8E36A013B4FF6FE72934231
:1012340003D92048BC2101F0A7F894F8513013F0E9
:10124400FF0F02D12046FFF781FF022384F85130BB
:101254002268136823F04003136021686268A3685E
:101264001A43E3681A4323691A4363691A43A36957
:1012740003F400731343E2691343226A1343A26A1B
:101284001A430A602168638B03F00402636A134300
:101294004B602368E26A1A612268D36923F400630D
:1012A400D361002084F85200012384F8513010BD2A
:1012B4000120704720310008F8B504461D4690F817
:1012C4005130DBB2012B40F0D0800F461646002986
:1012D40000F0CD80002A00F0CC8083683BB1B3F5E8
:1012E400004F04D0674840F26D1101F04DF894F8B6
:1012F4005030012B00F0BF80012384F850301223BA
:1013040084F85130002384F852302763A686E68699
:10131400E364A364A387E387A36AB3F5005F09D1F9
:101324002268136823F4005313602268136843F49B
:1013340000531360A368B3F5004F04D12268136807
:1013440043F48043136023681A6812F0400F03D1FA
:101354001A6842F040021A60E368002B2CD16368DB
:1013640013B1E38E012B1AD12268236B591C21631C
:101374001B78D360E38E013BE38610E02046022114
:1013840000222B46FFF770FE002876D12268236BDB
:10139400591C21631B78D360E38E013BE386E38E03
:1013A400002BEBD1A36AB3F5005F33D12268136835
:1013B40043F4805313602DE0636813B1E38E012B73
:1013C4001CD12368226B1288DA60236B02332363F7
:1013D400E38E013BE38611E02046022100222B46E6
:1013E400FFF742FE00284AD12368226B1288DA6094
:1013F400236B02332363E38E013BE386E38E002BEE
:10140400EAD1A36AB3F5005F04D12268136843F4F8
:10141400805313602046022100222B46FFF724FE4E
:1014240038B194F8523043F0200384F85230032347
:1014340026E02046802101222B46FFF715FE0346B5
:1014440038B194F8523043F0200384F85230032327
:1014540016E0A26812B92268D1689268012284F861
:101464005120002284F850200AE0022308E00123DE
:1014740006E0012304E0022302E0032300E0032347
:101484001846F8BD20310008F0B583B004460E4676
:1014940017461D4690F85130DBB2012B02D0222BA7
:1014A40040F08881002E00F08781002F00F08681B3
:1014B400002D00F08581A36823B19F4840F2C72125
:1014C40000F062FF94F85030012B00F07B8101237F
:1014D40084F8503094F85130DBB2012B02D132231E
:1014E40084F85130002384F85230A763A587E58738
:1014F4002663A586E586A364E364A36AB3F5005F67
:1015040009D12268136823F4005313602268136816
:1015140043F40053136023681A6812F0400F03D198
:101524001A6842F040021A60E368B3F5006F7DD197
:1015340063682BB1B3F5827F0CD1E38E012B09D103
:101544002368226B1288DA60236B02332363E38EF1
:10155400013BE386E38E002B4DD1A36AB3F5005F14
:1015640004D12268136843F4805313602046012198
:101574000022089BFFF778FD002840F02581A36B2B
:101584002268D2681A80A36B0233A363E38F013B02
:10159400E387BEE0204602210022089BFFF764FD9A
:1015A400002840F013812368226B1288DA60236BD1
:1015B40002332363E38E013B9BB2E38643B9A36A00
:1015C400B3F5005F04D12268136843F480531360B9
:1015D400204601210022089BFFF746FD002840F029
:1015E400F780A36B2268D2681A80A36B0233A363CB
:1015F400E38F013BE387E38E002BCBD16368002BA1
:1016040040F08780204601210022089BFFF72CFD33
:10161400002840F0DF80A36B2268D2681A80A36B95
:101624000233A363E38F013BE38772E063682BB16A
:10163400B3F5827F0BD1E38E012B08D12268236B93
:10164400591C21631B78D360E38E013BE386E38E50
:10165400002B48D1A36AB3F5005F04D12268136854
:1016640043F480531360204601210022089BFFF7B6
:10167400FBFC002840F0B080A36B2268D2681A708B
:10168400E38F013BE38744E0204602210022089BCC
:10169400FFF7EAFC002840F0A1802268236B591C64
:1016A40021631B78D360E38E013B9BB2E38643B98D
:1016B400A36AB3F5005F04D12268136843F480532E
:1016C4001360204601210022089BFFF7CDFC00286F
:1016D40040F08680A36B5A1CA2632268D2681A70F9
:1016E400E38F013BE387E38E002BCDD1636883B99D
:1016F400204601210022089BFFF7B6FC002871D187
:10170400A36B5A1CA2632268D2681A70E38F013B50
:10171400E387A36AB3F5005F15D1204601210022B7
:10172400089BFFF7A1FC48B194F8523043F0020340
:1017340084F85230032356E0203100082368DB6824
:101744009BB2ADF80630204680210122089BFFF7AA
:101754008BFC034638B194F8523043F0200384F8EC
:10176400523003233FE0012284F8512021688A6823
:1017740002F01002A06AB0F5005F17D1B2B194F87C
:10178400523043F0020384F85230B0F5005F08D1C0
:101794000B6823F400530B602268136843F400536E
:1017A4001360002384F8503001231CE0002284F8E5
:1017B400502018E0022316E0012314E0012312E074
:1017C400012310E002230EE003230CE003230AE0CC
:1017D400032308E0032306E0032304E0032302E0D9
:1017E400032300E00323184603B0F0BDF0B585B031
:1017F40004461E4690F85130DBB2012B40F0F780CE
:101804000F461546002900F0F480002A00F0F3800A
:1018140090F85030012B00F0F080012380F8503014
:10182400222380F85130002380F85230A163A2872C
:10183400E2878364C3648386C3868368B3F5004FF9
:1018440004D10268136823F480431360A36AB3F5D8
:10185400005F09D12268136823F4005313602268DF
:10186400136843F4005313606368B3F5827F0CD1AB
:10187400A36853B984F850300096204639463A4656
:101884002B46FFF701FE0546BEE023681A6812F0F6
:10189400400F03D11A6842F040021A60E36893B122
:1018A40031E02046012100223346FFF7DDFB00280A
:1018B40040F0A580A36B5A1CA2632268D2681A70F8
:1018C400E38F013BE387E38F012BEAD8A36AB3F5E7
:1018D400005F24D12268136843F4805313601EE030
:1018E4002046012100223346FFF7BEFB002840F0CA
:1018F4008880A36B2268D2681A80A36B0233A36327
:10190400E38F013BE387E38F012BE9D8A36AB3F5A7
:10191400005F04D12268136843F4805313602046A7
:10192400012100223346FFF79FFB054600286AD1B8
:10193400E36833B9A36B5A1CA2632268D2681A7095
:1019440006E0A36B2268D2681A80A36B0233A363F8
:10195400E38F013BE387A36AB3F5005F13D120460D
:10196400012100223346FFF77FFB38B194F852304F
:1019740043F0020384F85230032545E02368DB6812
:101984009BB2ADF80E306368B3F5827F0BD1A368C8
:10199400B3F5004F02D0B3F5806F04D12268136809
:1019A40023F040031360012384F8513022689368C4
:1019B40003F01003A16AB1F5005F14D19BB194F850
:1019C400523043F0020384F85230136823F4005376
:1019D40013602268136843F400531360002384F8EF
:1019E4005030012510E0002384F850300CE002252B
:1019F4000AE0012508E0012506E0022504E00325AC
:101A040002E0032500E00325284605B0F0BD00BF31
:101A1400F8B504460E4617461D4690F85130DBB221
:101A2400012B08D04268B2F5827F4ED18268002A29
:101A34004DD1222B4DD1002E4DD0002F4DD0002D55
:101A44004DD0A36823B1294840F2624100F09CFCC8
:101A540094F85030012B44D0012384F8503094F88A
:101A64005130DBB2222B02D0322384F851300023D0
:101A740084F852301E4BE3642663A586E5861D4B2D
:101A8400A364A763A587E587A36AB3F5005F09D1BB
:101A94002268136823F4005313602268136843F424
:101AA400005313602268536843F0E003536000233B
:101AB40084F8503023681A6812F0400F13D11A6862
:101AC40042F040021A600020F8BD0220F8BD022056
:101AD400F8BD0220F8BD0120F8BD0120F8BD0120A9
:101AE400F8BD0220F8BD0020F8BD00BF2031000879
:101AF400711C0008F11D0008134690F85120D2B261
:101B0400012A52D110B50C46002950D0002B50D0D8
:101B140090F85020012A4ED0012280F85020222231
:101B240080F85120002280F8522025498164846382
:101B34008387C387C2648286C2868268B2F5004FF7
:101B440005D10268136823F4804313600CE05AB98A
:101B54004268B2F5827F07D1002280F850202146E6
:101B64002246FFF755FF10BD836AB3F5005F09D124
:101B74000268136823F4005313600268136843F483
:101B8400005313600268536843F0600353600023FA
:101B940080F8503003681A6812F0400F0DD11A68AB
:101BA40042F040021A60002010BD0220704701205C
:101BB40010BD012010BD022010BD002010BD00BFCB
:101BC400A51D0008704700BF704700BF704700BFE5
:101BD40010B50446022100220A23FFF745FA28B172
:101BE40094F8523043F0200384F85230226853684A
:101BF40023F08003536023685A6812F0400F33D1F6
:101C04005A6822F020025A602046802101220A23C9
:101C1400FFF72AFA28B194F8523043F0200384F8ED
:101C24005230A36813B92368DA689B6894F8523079
:101C340013F0FF0F12D194F85130DBB2322B06D1DE
:101C4400012384F851302046FFF7BEFF10BD012365
:101C540084F851302046FFF7B5FF10BD012384F806
:101C640051302046FFF7B2FF10BD00BF08B5C3686E
:101C740033B90268036B591C01631B78D36006E017
:101C84000368026B1288DA60036B02330363C38E4A
:101C9400013B9BB2C38653B9836AB3F5005F04D199
:101CA4000268136843F480531360FFF791FF08BD83
:101CB40010B582B00446836AB3F5005F31D10121C7
:101CC40000220A23FFF7D0F928B194F8523043F0E8
:101CD400200384F852302368DB689BB2ADF80630E9
:101CE400204601210A460A23FFF7BEF928B194F8D9
:101CF400523043F0200384F8523023689A6812F07B
:101D0400100F0ED094F8522042F0020284F85220B0
:101D14001A6822F400521A602268136843F40053CC
:101D240013602268536823F04003536023685A68A1
:101D340012F0800F31D15A6822F020025A60636891
:101D4400B3F5827F0BD1A368B3F5004F02D0B3F58E
:101D5400806F04D12268136823F04003136094F861
:101D6400523013F0FF0F12D194F85130DBB2322B02
:101D740006D1012384F851302046FFF725FF0CE0FB
:101D8400012384F85130204600F02EFD05E00123A4
:101D940084F851302046FFF719FF02B010BD00BF90
:101DA40008B5C36833B9836B5A1C82630268D2686E
:101DB4001A7006E0836B0268D2681A80836B023360
:101DC4008363C38F013B9BB2C387012B08D1836A12
:101DD400B3F5005F04D10268136843F480531360C1
:101DE400C38F0BB9FFF764FF08BD00BF08B5C36814
:101DF40033B9836B5A1C82630268D2681A7006E096
:101E0400836B0268D2681A80836B02338363C38F47
:101E1400013B9BB2C3870BB9FFF74AFF08BD00BF64
:101E240010B503689C685A6802F04002996801F092
:101E3400400114F0010F04D01AB111B9836C984712
:101E440010BD99685A6802F0800211F0020F03D0A5
:101E540012B1C36C984710BD5A6812F0200F43D0DA
:101E64009A6812F0100F08D090F8522042F0020243
:101E740080F852206FF010029A6003689A6812F09A
:101E8400200F0AD090F8522042F0010280F852202C
:101E94009A681A6822F040021A6003689A6812F07D
:101EA400400F0CD090F85120D2B2122A07D090F8EB
:101EB400522042F0040280F85220DA689A689A6844
:101EC40012F4807F06D090F8522042F0080280F885
:101ED40052209B6890F8523013F0FF0F04D0012376
:101EE40080F85130FFF772FE10BD00BF704700BF8D
:101EF40010B504460368234A934237D0B3F1804FA8
:101F040034D0A2F57C42934230D002F580629342F1
:101F14002CD002F58062934228D002F5806293426D
:101F240024D002F58062934220D002F5704293429D
:101F34001CD002F57052934218D002F5806293428D
:101F440014D002F58062934210D0A2F598329342E5
:101F54000CD002F58062934208D002F5806293426D
:101F640004D0094840F2611100F00EFA2268D368E7
:101F740043F00103D3602268136843F00103136044
:101F8400002010BD0000014050310008704700BF20
:101F9400704700BF704700BF704700BF10B50446CC
:101FA40003681A6912F0020F17D0DA6812F0020FF0
:101FB40013D06FF002021A610123037603689B6950
:101FC40013F0030F02D0FFF7E3FF04E0FFF7DEFF97
:101FD4002046FFF7DFFF0023237623681A6912F0F7
:101FE400040F19D0DA6812F0040F15D06FF0040250
:101FF4001A610223237623689B6913F4407F03D07C
:102004002046FFF7C5FF05E02046FFF7BFFF204647
:10201400FFF7C0FF0023237623681A6912F0080F24
:1020240019D0DA6812F0080F15D06FF008021A619F
:10203400042323762368DB6913F0030F03D02046BF
:10204400FFF7A6FF05E02046FFF7A0FF2046FFF7B5
:10205400A1FF0023237623681A6912F0100F19D008
:10206400DA6812F0100F15D06FF010021A6108230D
:1020740023762368DB6913F4407F03D02046FFF7FF
:1020840087FF05E02046FFF781FF2046FFF782FF28
:102094000023237623681A6912F0010F09D0DA6845
:1020A40012F0010F05D06FF001021A61204600F012
:1020B40065FB23681A6912F0800F09D0DA6812F000
:1020C400800F05D06FF080021A61204600F024F9D9
:1020D40023681A6912F0400F09D0DA6812F0400F31
:1020E40005D06FF040021A612046FFF755FF2368C0
:1020F4001A6912F0200F09D0DA6812F0200F05D007
:102104006FF020021A61204600F004F910BD00BFF0
:102114000368454A904214D0B0F1804F13D0A2F521
:102124007C42904211D002F5806290420FD002F5B9
:10213400806290420DD002F5784290420BD1012288
:102144000AE0012208E0012206E0012204E0012263
:1021540002E0012200E000221AB123F070034A6871
:102164001343314A90422CD0B0F1804F2BD0A2F5CA
:102174007C42904229D002F58062904227D002F539
:102184008062904225D002F57842904223D002F535
:102194007052904221D002F5806290421FD002F525
:1021A400806290421DD0A2F5983290421BD002F575
:1021B4008062904219D002F58062904217D10122C8
:1021C40016E0012214E0012212E0012210E00122B3
:1021D4000EE001220CE001220AE0012208E00122C3
:1021E40006E0012204E0012202E0012200E00022D4
:1021F4001AB123F44073CA68134303608B68C36243
:102204000B688362084B984205D003F580639842BB
:1022140003D1012302E0012300E000230BB10B6989
:1022240003630123436170470000014000286BD021
:1022340010B504460368354A934236D0B3F1804F53
:1022440033D0A2F57C4293422FD002F580629342B0
:102254002BD002F58062934227D002F5806293422C
:1022640023D002F5806293421FD002F5704293425C
:102274001BD002F57052934217D002F5806293424C
:1022840013D002F5806293420FD0A2F598329342A4
:102294000BD002F58062934207D002F5806293422C
:1022A40003D01B48D12100F06FF8A3685BB1102B59
:1022B40009D0202B07D0402B05D0602B03D0144825
:1022C400D22100F061F823694BB1B3F5807F06D0C9
:1022D400B3F5007F03D00E48D32100F055F894F8ED
:1022E400393013F0FF0F02D12046FFF7FFFD022320
:1022F40084F83930214651F8040BFFF709FF012314
:1023040084F83930002010BD0120704700000140DE
:1023140050310008704700BF704700BFFEE700BFA0
:1023240008B5034800F056F80120FFF7F7FF00BF97
:102334008031000808B50D4B1B6813B90C4A0B4BD0
:102344001A600A4B1A68C31C23F003031344094997
:102354008B4206D900F056FA0C2303604FF0FF308D
:1023640008BD02490B60104608BD00BF8000002074
:10237400D405002000FC012001230360014B0B6005
:10238400704700BF0400002008B503460A4603480E
:10239400194600F005F8FFF7C3FF00BFD431000869
:1023A4000FB400B583B004AB53F8042B0193084871
:1023B400802100F05FFA011E03DD054800F03EF8BD
:1023C4000146084603B05DF804EB04B0704700BF53
:1023D4008800002010B5044600F01AFA0146204691
:1023E40000F02CF80248012100F028F810BD00BFCD
:1023F4000032000810B400221AE04FF06043D3F812
:10240400803E13F0010F06D04FF06043D3F8003E36
:1024140013F0010F01D110460DE04FF060431B682B
:10242400002BFAD004784FF060431C700132013065
:102434008A42E2D308465DF8044B704708B5FFF7BB
:10244400D9FF08BD0C4B1A6842F001021A60002142
:1024540099601A6822F0847222F480321A60074A62
:102464005A601A6822F480221A60D9604FF0006220
:10247400034B9A60704700BF0038024010300024BC
:1024840000ED00E010B592B0174A136C43F080538E
:102494001364A2F5E432136843F440431360012348
:1024A40001930293022407944FF4800308930823B2
:1024B40009934FF4A8730A930B9407230C9301A870
:1024C400FEF770F90F230D930E9400230F934FF42E
:1024D400A05310934FF4805311930DA80521FEF7D8
:1024E400BBFB12B010BD00BF0038024008B5FFF7B7
:1024F400A9FFFDF7F9FEFFF7C5FF08BD08B54FF4C6
:10250400704000F031F84FF4FA60FDF715FF4FF416
:10251400204000F043F8F6E710B586B004460122E7
:102524000D4B1A7010F4704F04D118B90B482721C1
:10253400FFF72AFF0A4A136B43F0080313630123CE
:1025440002930194002303930493064801A9FDF721
:1025540089FF06B010BD00BF14010020303200080E
:1025640000380240000C024010B5044610F4704FCD
:1025740004D118B906483421FFF706FF054B1B7830
:1025840023B1054821460122FEF7D8F810BD00BF4B
:102594003032000814010020000C024010B504463B
:1025A40010F4704F04D118B905484321FFF7ECFE2D
:1025B400044B1B781BB104482146FEF7D7F810BD25
:1025C4003032000814010020000C024010B50F4AFC
:1025D400136C43F0040313640D4C0E4B2360002270
:1025E4002261A2604AF20F43636040F2CE73E3605B
:1025F4001E200421FDF7CCFE1E20FDF70BFF204614
:10260400FFF714FE2046FFF773FC10BD00380240AC
:10261400800100200008004010B50C4A136B43F001
:10262400010313630A490B4B4B6000248C600123A4
:102634000B600948FDF716FF062002212246FDF72C
:10264400A7FE0620FDF7E6FE10BD00BF00380240DD
:10265400BC0100200000211000000240064A136B58
:1026640043F002031363054B054A5A6000229A6043
:102674004FF460421A60704700380240180100208D
:102684000000211070B51F4B1A6C42F480421A648A
:102694001A6B42F002021A631B4C4FF4005323607E
:1026A40002256560A560E56005232361174E304669
:1026B4002146FDF7D7FE0123A3604FF48043236036
:1026C40030462146FDF7CEFE4FF4004323603046EA
:1026D4002146FDF7C7FE0E480E4B03603823C36145
:1026E400002383600561436183620722C262C36081
:1026F40003624FF40072826143624360FEF728FD77
:1027040070BD00BF003802401801002000040240E0
:102714002C0100200038004008B54FF47040FFF74A
:10272400FBFEFFF753FFFFF7ADFFFFF775FFFFF762
:1027340095FF08BD08B5FDF7F1FDFDF78FFE08BD57
:1027440008B50248FFF72AFC08BD00BF800100203D
:1027540010B582B0054C20460DF107010122FFF7A8
:10276400CBF92046FFF75CFB02B010BD2C01002022
:1027740008B50120FEF70AF808BD00BF10B582B005
:102784004FF48040FFF70AFF0D4B1A889B78ADF891
:1027940004208DF806300B4C204601A90222642344
:1027A400FFF724F8204601A902226423FEF784FDE2
:1027B400054B1B686FF001021A6102B010BD00BF27
:1027C400403200082C0100208001002008B50128B7
:1027D40003D14FF48050FFF7E1FE0122014B5A610F
:1027E40008BD00BF003C014010B5002407E04FF4D1
:1027F4000050FFF7D3FE6420FDF79EFD0134052C45
:10280400F5DD10BD014B1868704700BF7000002053
:10281400034613F8012B002AFBD1181A013870471C
:1028240030B5141E9BB0054604DA8B2303604FF0C9
:10283400FF301CE04FF40272ADF80C2014BF04F119
:10284400FF322246029205924FF6FF7200910491E4
:10285400ADF80E2069461A461E9B00F075F8431C1D
:10286400BCBF8B232B6014B1009B00221A701BB0D9
:1028740030BD000073B50093054B06460D46144663
:10288400186831462A462346FFF7CAFF02B070BDD6
:10289400700000202DE9F0478E68B34282460C4652
:1028A4009046994640D38A8912F4906F3AD02568AD
:1028B40009696F1A6569022305EB450595FBF3F574
:1028C4007B1C4B449D4238BF1D4653050FD52946FA
:1028D40000F03CFB064698B121693A4600F0CBFA79
:1028E400A38923F4906343F08003A38113E02A4671
:1028F40000F082FB064670B95046216900F0E2FA06
:102904000C23CAF80030A38943F04003A3814FF09D
:10291400FF30BDE8F087266165613E44ED1B26600B
:10292400A5604E46B14500D24E4632462068414627
:1029340000F0ACFAA3689B1BA36023681E442660C6
:102944000020BDE8F08700002DE9F0439DB0064665
:1029540003938B891C060D4690460CD50B6953B91D
:10296400402100F0F3FA2860286110B90C23336089
:10297400CCE040236B610023099320238DF8293098
:1029840030238DF82A3043461C4613F8012B1AB91C
:10299400B4EB08090FD002E0252AF5D1F8E7304658
:1029A400294642464B46FFF775FF013000F0A980E7
:1029B400099B4B4409932378002B00F0A280002349
:1029C4004FF0FF3204930793059206938DF853302A
:1029D4001A9304F101084446DFF8489121784846E7
:1029E400052200F039FA08F10108049B30B1C9EB63
:1029F40000000122824013430493ECE7D80644BF4D
:102A040020228DF85320190744BF2B228DF8532020
:102A140022782A2A02D0079923460EE0039A111D30
:102A240012680391002ABBBF524243F0020307928B
:102A34000792B8BF049301340AE01C46013322789C
:102A4400303A092A03D80A2000FB0121F5E707914F
:102A540023782E2B1AD163782A2B0AD1039B1A1DB3
:102A64001B680392002BB8BF4FF0FF330234059369
:102A74000CE0611C00220C4601312378303B092B09
:102A840003D80A2000FB0232F5E70592DFF89880AC
:102A940021784046032200F0DFF938B1049AC8EBEC
:102AA40000004023834013430493013421781A48DF
:102AB4008DF82810062204F1010800F0CDF988B140
:102AC400164B33B9039B073323F0070308330393EF
:102AD40013E003AB0093304604A92A46104BAFF32E
:102AE400008007E003AB0093304604A92A460C4B50
:102AF40000F092F8421C074603D0099B3B4409931B
:102B040041E7AB895B0601D4099801E04FF0FF303F
:102B14001DB0BDE8F08300BF4F3200080000000084
:102B240099280008453200084B3200082DE9F84383
:102B340091461F468A680B69DDF820809342B8BF2E
:102B44001346C9F8003091F8432006460C4612B1EA
:102B54000133C9F800302368990642BFD9F8003020
:102B64000233C9F80030256815F006051CD094F826
:102B740043302268003318BF012392061FD5E118A1
:102B84005A1C302081F84300224494F8451082F8FE
:102B94004310023313E03046394604F1190201238D
:102BA400C047013007D00135E368D9F800209B1AEB
:102BB4009D42F0DBDBE74FF0FF30BDE8F8833046A1
:102BC400394604F14302C0470130F4D02268D9F8F1
:102BD4000050E36802F00602042A08BF5D1B226964
:102BE400A3680CBF25EAE57500259342C4BF9B1A70
:102BF400ED184FF00009A9450ADA3046394604F1C8
:102C04001A020123C0470130D5D009F10109F2E7C6
:102C14000020BDE8F88300002DE9FF410C4617466B
:102C2400227E6E2A984606460A9B01F1430100F073
:102C3400AF8012D8632A23D00AD8002A00F0BC80BF
:102C4400582A40F0CB8084F84520DFF804E257E0AE
:102C5400642A1ED0692A1CD0C0E0732A00F0B08018
:102C640009D86F2A2ED0702A40F0B880226842F02A
:102C7400200222603FE0752A24D0782A3BD0ADE0C0
:102C84001A68111D1960136884F8423004F1420572
:102C9400A8E020681A6810F0800F02D0101D186098
:102CA40008E010F0400F02F10400186002D0B2F9FD
:102CB400003000E01368002B3EDA2D225B4284F8DA
:102CC400432039E020681A6810F0800F02D0101DEC
:102CD400186007E010F0400F02F10400186001D002
:102CE400138800E01368227EDFF864E16F2A0CBFCA
:102CF40008220A221CE07822DFF858E184F84520F3
:102D04002268186812F0800F00F104051D6003D1D9
:102D1400550601D5038800E00368D00744BF42F09C
:102D2400200222601BB9226822F0200222601022B5
:102D3400002084F8430002E0DFF814E10A22656809
:102D4400A560002DA2BF206820F00400206003B914
:102D540065B10D46B3FBF2F002FB10331EF80330ED
:102D640005F8013D03460028F4D100E00D46082A89
:102D74000BD12368DA0708D5236962689A42DEBF5B
:102D8400302305F8013C05F1FF35491B21612EE094
:102D940025681A68606915F0800F03D0151D1D6041
:102DA400136808E015F0400F02F104051D60136874
:102DB40001D0188000E01860002323610D4616E05E
:102DC4001A68111D1960156862682846002100F010
:102DD40043F808B1401B6060636804E004F14205F5
:102DE40084F8422001232361002384F84330CDF882
:102DF40000803046214603AA3B46FFF797FE013088
:102E040002D14FF0FF301FE0304639462A4623698D
:102E1400C0470130F5D023689B0705D4E068039BC5
:102E24009842B8BF18460FE00025E368039A9B1A3E
:102E34009D42F3DA3046394604F119020123C047B2
:102E44000130DED00135F0E704B0BDE8F08100BF09
:102E5400563200086732000810B5C9B202449042E5
:102E6400034606D01C788C4200F10100F7D11846C5
:102E740010BD002010BD10B5431E0A44914204D079
:102E840011F8014B03F8014FF8E710BD814210B56A
:102E940001EB020301D3421E0BE09842FBD28118DE
:102EA400D21AD34204D013F8014D01F8014DF8E7CA
:102EB40010BD994204D011F8014B02F8014FF8E714
:102EC40010BD000030B500293DD051F8042C0B1F73
:102ED4001D49002AB8BF9B180A680C4612B95A60EB
:102EE4000B6030BD93420DD219685818904201BF4F
:102EF4005A5852181A6042685A60236030BD994289
:102F040003D80A4651680029F9D1146815199D425D
:102F14000AD11B682344D0188842136013D108686F
:102F2400034413604B680DE002D90C23036030BDE9
:102F34001C681819884204BF08684968596004BFAE
:102F440000191860536030BD0C01002070B5CC1C12
:102F540024F0030408340C2C38BF0C24002C06463F
:102F640003DA0C233360002070BD8C42F9D3204A6D
:102F7400136810461946A1B10A68121B0ED40B2A15
:102F840003D90A608B188C501FE08B420DBF5A681E
:102F94004A685A60026018BF0B4616E00B4649683F
:102FA400E9E7144D2B681BB9304600F04BF8286054
:102FB4003046214600F046F8421C0346D1D0C51CD9
:102FC40025F0030585420AD11C6003F10B001A1D8C
:102FD40020F00700821A0AD05142995070BD304641
:102FE400E91A00F02FF80130BBD02B46ECE770BD96
:102FF4000C01002008010020F8B5074615460E46CE
:1030040021B91146BDE8F840FFF7A0BF1AB9FFF790
:1030140059FF2846F8BD00F025F8A8420ED23846DC
:103024002946FFF793FF044650B131462A46FFF77D
:1030340022FF38463146FFF745FF01E03046F8BD30
:103044002046F8BD38B5064C0023054608462360E3
:10305400FFF770F9431C02D1236803B12B6038BD1C
:103064001001002051F8040C0028BEBF091851F8C3
:10307400043CC018043870472E2E2F73797374657E
:103084006D2F7372632F73746D333266342D6861E0
:103094006C2F73746D3332663478785F68616C5F5B
:1030A400636F727465782E63000000002E2E2F73F8
:1030B400797374656D2F7372632F73746D33326615
:1030C400342D68616C2F73746D3332663478785F95
:1030D40068616C5F6770696F2E6300000000000018
:1030E4000102030401020304060708092E2E2F73AC
:1030F400797374656D2F7372632F73746D333266D5
:10310400342D68616C2F73746D3332663478785F54
:1031140068616C5F7263632E630000002E2E2F7350
:10312400797374656D2F7372632F73746D333266A4
:10313400342D68616C2F73746D3332663478785F24
:1031440068616C5F7370692E630000002E2E2F730C
:10315400797374656D2F7372632F73746D33326674
:10316400342D68616C2F73746D3332663478785FF4
:1031740068616C5F74696D2E6300000061626F7238
:103184007428292C2065786974696E672E2E2E00A8
:103194002C2066756E6374696F6E3A20000000001F
:1031A400617373657274696F6E20222573222066C1
:1031B40061696C65643A2066696C65202225732216
:1031C4002C206C696E65202564257325730A000024
:1031D4006173736572745F706172616D2829206612
:1031E40061696C65643A2066696C652022257322E6
:1031F4002C206C696E652025640A00000A0000001A
:103204006D61696E28617267633D25642C2061726B
:1032140067763D5B000000002C200000222573220D
:10322400000000005D293B0A000000002E2E2F62E2
:1032340073702F6273702E630000000012345643C3
:1032440000232D302B2000686C4C006566674546D2
:10325400470030313233343536373839414243440C
:10326400454600303132333435363738396162639C
:043274006465660027
:103278007856341284000020000000000024F40076
:103288000000000000000000000000000000000036
:103298000000000000000000000000000000000026
:1032A8004332000800000000000000000000000099
:1032B8000000000000000000000000000000000006
:1032C80000000000000000000000000000000000F6
:1032D80000000000000000000000000000000000E6
:0832E80010000020325476981A
:040000050800018965
:00000001FF
